{
  "fileName": "TokenTimelock.sol",
  "contractName": "TokenTimelockUpgradeSafe",
  "source": "pragma solidity ^0.6.0;\n\nimport \"./SafeERC20.sol\";\nimport \"../../Initializable.sol\";\n\n/**\n * @dev A token holder contract that will allow a beneficiary to extract the\n * tokens after a given release time.\n *\n * Useful for simple vesting schedules like \"advisors get all of their tokens\n * after 1 year\".\n *\n * For a more complete vesting schedule, see {TokenVesting}.\n */\ncontract TokenTimelockUpgradeSafe is Initializable {\n    using SafeERC20 for IERC20;\n\n    // ERC20 basic token contract being held\n    IERC20 private _token;\n\n    // beneficiary of tokens after they are released\n    address private _beneficiary;\n\n    // timestamp when token release is enabled\n    uint256 private _releaseTime;\n\n\n    function __TokenTimelock_init(IERC20 token, address beneficiary, uint256 releaseTime) internal initializer {\n        __TokenTimelock_init_unchained(token, beneficiary, releaseTime);\n    }\n\n    function __TokenTimelock_init_unchained(IERC20 token, address beneficiary, uint256 releaseTime) internal initializer {\n\n\n        // solhint-disable-next-line not-rely-on-time\n        require(releaseTime > block.timestamp, \"TokenTimelock: release time is before current time\");\n        _token = token;\n        _beneficiary = beneficiary;\n        _releaseTime = releaseTime;\n\n    }\n\n\n    /**\n     * @return the token being held.\n     */\n    function token() public view returns (IERC20) {\n        return _token;\n    }\n\n    /**\n     * @return the beneficiary of the tokens.\n     */\n    function beneficiary() public view returns (address) {\n        return _beneficiary;\n    }\n\n    /**\n     * @return the time when the tokens are released.\n     */\n    function releaseTime() public view returns (uint256) {\n        return _releaseTime;\n    }\n\n    /**\n     * @notice Transfers tokens held by timelock to beneficiary.\n     */\n    function release() public virtual {\n        // solhint-disable-next-line not-rely-on-time\n        require(block.timestamp >= _releaseTime, \"TokenTimelock: current time is before release time\");\n\n        uint256 amount = _token.balanceOf(address(this));\n        require(amount > 0, \"TokenTimelock: no tokens to release\");\n\n        _token.safeTransfer(_beneficiary, amount);\n    }\n\n    uint256[47] private __gap;\n}\n",
  "sourcePath": "contracts/lib/contracts-ethereum-package/token/ERC20/TokenTimelock.sol",
  "abi": [
    {
      "inputs": [],
      "name": "beneficiary",
      "outputs": [
        {
          "internalType": "address",
          "name": "",
          "type": "address"
        }
      ],
      "stateMutability": "view",
      "type": "function"
    },
    {
      "inputs": [],
      "name": "release",
      "outputs": [],
      "stateMutability": "nonpayable",
      "type": "function"
    },
    {
      "inputs": [],
      "name": "releaseTime",
      "outputs": [
        {
          "internalType": "uint256",
          "name": "",
          "type": "uint256"
        }
      ],
      "stateMutability": "view",
      "type": "function"
    },
    {
      "inputs": [],
      "name": "token",
      "outputs": [
        {
          "internalType": "contract IERC20",
          "name": "",
          "type": "address"
        }
      ],
      "stateMutability": "view",
      "type": "function"
    }
  ],
  "bytecode": "0x608060405234801561001057600080fd5b5061071a806100206000396000f3fe608060405234801561001057600080fd5b506004361061004c5760003560e01c806338af3eed1461005157806386d1a69f14610085578063b91d40011461008f578063fc0c546a146100ad575b600080fd5b6100596100e1565b604051808273ffffffffffffffffffffffffffffffffffffffff16815260200191505060405180910390f35b61008d61010b565b005b6100976102f9565b6040518082815260200191505060405180910390f35b6100b5610303565b604051808273ffffffffffffffffffffffffffffffffffffffff16815260200191505060405180910390f35b6000603460009054906101000a900473ffffffffffffffffffffffffffffffffffffffff16905090565b603554421015610166576040517f08c379a00000000000000000000000000000000000000000000000000000000081526004018080602001828103825260328152602001806106666032913960400191505060405180910390fd5b6000603360009054906101000a900473ffffffffffffffffffffffffffffffffffffffff1673ffffffffffffffffffffffffffffffffffffffff166370a08231306040518263ffffffff1660e01b8152600401808273ffffffffffffffffffffffffffffffffffffffff16815260200191505060206040518083038186803b1580156101f157600080fd5b505afa158015610205573d6000803e3d6000fd5b505050506040513d602081101561021b57600080fd5b8101908080519060200190929190505050905060008111610287576040517f08c379a00000000000000000000000000000000000000000000000000000000081526004018080602001828103825260238152602001806106c26023913960400191505060405180910390fd5b6102f6603460009054906101000a900473ffffffffffffffffffffffffffffffffffffffff1682603360009054906101000a900473ffffffffffffffffffffffffffffffffffffffff1673ffffffffffffffffffffffffffffffffffffffff1661032d9092919063ffffffff16565b50565b6000603554905090565b6000603360009054906101000a900473ffffffffffffffffffffffffffffffffffffffff16905090565b6103ca8363a9059cbb60e01b8484604051602401808373ffffffffffffffffffffffffffffffffffffffff16815260200182815260200192505050604051602081830303815290604052907bffffffffffffffffffffffffffffffffffffffffffffffffffffffff19166020820180517bffffffffffffffffffffffffffffffffffffffffffffffffffffffff83818316178352505050506103cf565b505050565b6103ee8273ffffffffffffffffffffffffffffffffffffffff1661061a565b610460576040517f08c379a000000000000000000000000000000000000000000000000000000000815260040180806020018281038252601f8152602001807f5361666545524332303a2063616c6c20746f206e6f6e2d636f6e74726163740081525060200191505060405180910390fd5b600060608373ffffffffffffffffffffffffffffffffffffffff16836040518082805190602001908083835b602083106104af578051825260208201915060208101905060208303925061048c565b6001836020036101000a0380198251168184511680821785525050505050509050019150506000604051808303816000865af19150503d8060008114610511576040519150601f19603f3d011682016040523d82523d6000602084013e610516565b606091505b50915091508161058e576040517f08c379a00000000000000000000000000000000000000000000000000000000081526004018080602001828103825260208152602001807f5361666545524332303a206c6f772d6c6576656c2063616c6c206661696c656481525060200191505060405180910390fd5b600081511115610614578080602001905160208110156105ad57600080fd5b8101908080519060200190929190505050610613576040517f08c379a000000000000000000000000000000000000000000000000000000000815260040180806020018281038252602a815260200180610698602a913960400191505060405180910390fd5b5b50505050565b60008060007fc5d2460186f7233c927e7db2dcc703c0e500b653ca82273b7bfad8045d85a47060001b9050833f915080821415801561065c57506000801b8214155b9250505091905056fe546f6b656e54696d656c6f636b3a2063757272656e742074696d65206973206265666f72652072656c656173652074696d655361666545524332303a204552433230206f7065726174696f6e20646964206e6f742073756363656564546f6b656e54696d656c6f636b3a206e6f20746f6b656e7320746f2072656c65617365a2646970667358221220a9f32e2a386a64bdc2fb5d5fbc741a869de6ddab9cdff8f6e82bbfa025b7463764736f6c634300060c0033",
  "compiler": {
    "name": "solc",
    "version": "0.6.12+commit.27d51765.Emscripten.clang",
    "optimizer": {
      "enabled": false,
      "runs": 200
    },
    "evmVersion": "petersburg"
  }
}