{
  "fileName": "VICoinAdjustable.sol",
  "contractName": "VICoinAdjustable",
  "source": "pragma solidity ^0.6.6;\n\n/**\n    @title An open source smart contract for a UBI token with demurrage that\n        gives control of the currency to the community, with adjustable\n        parameters.\n    @author The Value Instrument Team\n    @notice \n*/\n\nimport \"./VICoin.sol\";\n\ncontract VICoinAdjustable is VICoin {\n    event UpdateLifetime(uint256 lifetime);\n    event UpdateInitialBalance(uint256 initialBalance);\n    event UpdateGenerationAmount(uint256 generationAmount);\n    event UpdateGenerationPeriod(uint256 generationPeriod);\n    event UpdateCommunityContributionAccount(\n        address newCommunityContributionAccount\n    );\n    event UpdateTransactionFee(uint256 transactionFee);\n    event UpdateCommunityContribution(uint256 communityContribution);\n\n    /// @notice Set the address that the contribution will be sent to\n    function updateCommunityContributionAccount(\n        address _newCommunityContributionAccount\n    ) external onlyController fused(0) {\n        settings\n            .communityContributionAccount = _newCommunityContributionAccount;\n        emit UpdateCommunityContributionAccount(\n            _newCommunityContributionAccount\n        );\n    }\n\n    /// @notice Set the contribution percentage, to be taken from the fee %\n    function updateCommunityContribution(uint256 _communityContribution)\n        external\n        onlyController\n        fused(1)\n    {\n        settings.communityContribution = _communityContribution;\n        emit UpdateCommunityContribution(_communityContribution);\n    }\n\n    /// @notice Set the fee %, to be taken from every transaction\n    function updateTransactionFee(uint256 _transactionFee)\n        external\n        onlyController\n        fused(2)\n    {\n        settings.transactionFee = _transactionFee;\n        emit UpdateTransactionFee(_transactionFee);\n    }\n\n    /// @notice Update the settings.lifetime for this currency.\n    /// (The number of blocks after which a balance decays to zero)\n    function updateLifetime(uint256 _lifetime)\n        external\n        onlyController\n        fused(5)\n    {\n        settings.lifetime = _lifetime;\n        emit UpdateLifetime(_lifetime);\n    }\n\n    /// @notice Update the balance issued to an account on creation\n    function updateInitialBalance(uint256 _initialBalance)\n        external\n        onlyController\n        fused(8)\n    {\n        settings.initialBalance = _initialBalance;\n        emit UpdateInitialBalance(_initialBalance);\n    }\n\n    /// @notice Update the number of blocks between each generation period\n    function updateGenerationPeriod(uint256 _generationPeriod)\n        external\n        onlyController\n        fused(4)\n    {\n        require(\n            numAccounts == 0,\n            \"Generation period cannot be changed once contract is in active use\"\n        );\n        settings.generationPeriod = _generationPeriod;\n        emit UpdateGenerationPeriod(_generationPeriod);\n    }\n\n    /** @notice Update the number of tokens issued to each account after each\n            generation period */\n    function updateGenerationAmount(uint256 _generationAmount)\n        external\n        onlyController\n        fused(3)\n    {\n        settings.generationAmount = _generationAmount;\n        emit UpdateGenerationAmount(_generationAmount);\n    }\n}\n",
  "sourcePath": "contracts/VICoinAdjustable.sol",
  "abi": [
    {
      "anonymous": false,
      "inputs": [
        {
          "indexed": true,
          "internalType": "address",
          "name": "owner",
          "type": "address"
        },
        {
          "indexed": true,
          "internalType": "address",
          "name": "spender",
          "type": "address"
        },
        {
          "indexed": false,
          "internalType": "uint256",
          "name": "value",
          "type": "uint256"
        }
      ],
      "name": "Approval",
      "type": "event"
    },
    {
      "anonymous": false,
      "inputs": [],
      "name": "BlowAllFuses",
      "type": "event"
    },
    {
      "anonymous": false,
      "inputs": [
        {
          "indexed": false,
          "internalType": "uint8",
          "name": "_fuseID",
          "type": "uint8"
        }
      ],
      "name": "BlowFuse",
      "type": "event"
    },
    {
      "anonymous": false,
      "inputs": [
        {
          "indexed": false,
          "internalType": "address",
          "name": "_newController",
          "type": "address"
        }
      ],
      "name": "ChangeController",
      "type": "event"
    },
    {
      "anonymous": false,
      "inputs": [
        {
          "indexed": false,
          "internalType": "string",
          "name": "name",
          "type": "string"
        },
        {
          "indexed": false,
          "internalType": "uint256",
          "name": "value",
          "type": "uint256"
        }
      ],
      "name": "Log",
      "type": "event"
    },
    {
      "anonymous": false,
      "inputs": [
        {
          "indexed": true,
          "internalType": "address",
          "name": "from",
          "type": "address"
        },
        {
          "indexed": true,
          "internalType": "address",
          "name": "to",
          "type": "address"
        },
        {
          "indexed": false,
          "internalType": "uint256",
          "name": "value",
          "type": "uint256"
        }
      ],
      "name": "Transfer",
      "type": "event"
    },
    {
      "anonymous": false,
      "inputs": [
        {
          "indexed": true,
          "internalType": "address",
          "name": "from",
          "type": "address"
        },
        {
          "indexed": true,
          "internalType": "address",
          "name": "to",
          "type": "address"
        },
        {
          "indexed": false,
          "internalType": "uint256",
          "name": "value",
          "type": "uint256"
        },
        {
          "indexed": false,
          "internalType": "uint256",
          "name": "feesBurned",
          "type": "uint256"
        },
        {
          "indexed": false,
          "internalType": "uint256",
          "name": "contribution",
          "type": "uint256"
        },
        {
          "indexed": false,
          "internalType": "uint256",
          "name": "payoutSender",
          "type": "uint256"
        },
        {
          "indexed": false,
          "internalType": "uint256",
          "name": "payoutRecipient",
          "type": "uint256"
        }
      ],
      "name": "TransferSummary",
      "type": "event"
    },
    {
      "anonymous": false,
      "inputs": [
        {
          "indexed": false,
          "internalType": "address",
          "name": "account",
          "type": "address"
        }
      ],
      "name": "UnapproveAccount",
      "type": "event"
    },
    {
      "anonymous": false,
      "inputs": [
        {
          "indexed": false,
          "internalType": "uint256",
          "name": "communityContribution",
          "type": "uint256"
        }
      ],
      "name": "UpdateCommunityContribution",
      "type": "event"
    },
    {
      "anonymous": false,
      "inputs": [
        {
          "indexed": false,
          "internalType": "address",
          "name": "newCommunityContributionAccount",
          "type": "address"
        }
      ],
      "name": "UpdateCommunityContributionAccount",
      "type": "event"
    },
    {
      "anonymous": false,
      "inputs": [
        {
          "indexed": false,
          "internalType": "uint256",
          "name": "generationAmount",
          "type": "uint256"
        }
      ],
      "name": "UpdateGenerationAmount",
      "type": "event"
    },
    {
      "anonymous": false,
      "inputs": [
        {
          "indexed": false,
          "internalType": "uint256",
          "name": "generationPeriod",
          "type": "uint256"
        }
      ],
      "name": "UpdateGenerationPeriod",
      "type": "event"
    },
    {
      "anonymous": false,
      "inputs": [
        {
          "indexed": false,
          "internalType": "uint256",
          "name": "initialBalance",
          "type": "uint256"
        }
      ],
      "name": "UpdateInitialBalance",
      "type": "event"
    },
    {
      "anonymous": false,
      "inputs": [
        {
          "indexed": false,
          "internalType": "uint256",
          "name": "lifetime",
          "type": "uint256"
        }
      ],
      "name": "UpdateLifetime",
      "type": "event"
    },
    {
      "anonymous": false,
      "inputs": [
        {
          "indexed": false,
          "internalType": "uint256",
          "name": "transactionFee",
          "type": "uint256"
        }
      ],
      "name": "UpdateTransactionFee",
      "type": "event"
    },
    {
      "anonymous": false,
      "inputs": [
        {
          "indexed": true,
          "internalType": "address",
          "name": "account",
          "type": "address"
        }
      ],
      "name": "VerifyAccount",
      "type": "event"
    },
    {
      "inputs": [
        {
          "internalType": "address",
          "name": "",
          "type": "address"
        }
      ],
      "name": "accountApproved",
      "outputs": [
        {
          "internalType": "bool",
          "name": "",
          "type": "bool"
        }
      ],
      "stateMutability": "view",
      "type": "function"
    },
    {
      "inputs": [
        {
          "internalType": "address",
          "name": "owner",
          "type": "address"
        },
        {
          "internalType": "address",
          "name": "spender",
          "type": "address"
        }
      ],
      "name": "allowance",
      "outputs": [
        {
          "internalType": "uint256",
          "name": "",
          "type": "uint256"
        }
      ],
      "stateMutability": "view",
      "type": "function"
    },
    {
      "inputs": [
        {
          "internalType": "address",
          "name": "spender",
          "type": "address"
        },
        {
          "internalType": "uint256",
          "name": "amount",
          "type": "uint256"
        }
      ],
      "name": "approve",
      "outputs": [
        {
          "internalType": "bool",
          "name": "",
          "type": "bool"
        }
      ],
      "stateMutability": "nonpayable",
      "type": "function"
    },
    {
      "inputs": [
        {
          "internalType": "address",
          "name": "account",
          "type": "address"
        }
      ],
      "name": "balanceOf",
      "outputs": [
        {
          "internalType": "uint256",
          "name": "",
          "type": "uint256"
        }
      ],
      "stateMutability": "view",
      "type": "function"
    },
    {
      "inputs": [
        {
          "internalType": "bool",
          "name": "_confirm",
          "type": "bool"
        }
      ],
      "name": "blowAllFuses",
      "outputs": [],
      "stateMutability": "nonpayable",
      "type": "function"
    },
    {
      "inputs": [
        {
          "internalType": "uint8",
          "name": "_fuseID",
          "type": "uint8"
        },
        {
          "internalType": "bool",
          "name": "_confirm",
          "type": "bool"
        }
      ],
      "name": "blowFuse",
      "outputs": [],
      "stateMutability": "nonpayable",
      "type": "function"
    },
    {
      "inputs": [
        {
          "internalType": "uint256",
          "name": "amount",
          "type": "uint256"
        }
      ],
      "name": "burn",
      "outputs": [],
      "stateMutability": "nonpayable",
      "type": "function"
    },
    {
      "inputs": [
        {
          "internalType": "address",
          "name": "account",
          "type": "address"
        },
        {
          "internalType": "uint256",
          "name": "amount",
          "type": "uint256"
        }
      ],
      "name": "burnAt",
      "outputs": [],
      "stateMutability": "nonpayable",
      "type": "function"
    },
    {
      "inputs": [
        {
          "internalType": "address",
          "name": "account",
          "type": "address"
        },
        {
          "internalType": "uint256",
          "name": "amount",
          "type": "uint256"
        }
      ],
      "name": "burnFrom",
      "outputs": [],
      "stateMutability": "nonpayable",
      "type": "function"
    },
    {
      "inputs": [
        {
          "internalType": "address",
          "name": "_newController",
          "type": "address"
        }
      ],
      "name": "changeController",
      "outputs": [],
      "stateMutability": "nonpayable",
      "type": "function"
    },
    {
      "inputs": [],
      "name": "controller",
      "outputs": [
        {
          "internalType": "address",
          "name": "",
          "type": "address"
        }
      ],
      "stateMutability": "view",
      "type": "function"
    },
    {
      "inputs": [],
      "name": "decimals",
      "outputs": [
        {
          "internalType": "uint8",
          "name": "",
          "type": "uint8"
        }
      ],
      "stateMutability": "view",
      "type": "function"
    },
    {
      "inputs": [
        {
          "internalType": "address",
          "name": "spender",
          "type": "address"
        },
        {
          "internalType": "uint256",
          "name": "subtractedValue",
          "type": "uint256"
        }
      ],
      "name": "decreaseAllowance",
      "outputs": [
        {
          "internalType": "bool",
          "name": "",
          "type": "bool"
        }
      ],
      "stateMutability": "nonpayable",
      "type": "function"
    },
    {
      "inputs": [],
      "name": "getBlockNumber",
      "outputs": [
        {
          "internalType": "uint256",
          "name": "",
          "type": "uint256"
        }
      ],
      "stateMutability": "view",
      "type": "function"
    },
    {
      "inputs": [],
      "name": "getCommunityContribution",
      "outputs": [
        {
          "internalType": "uint256",
          "name": "",
          "type": "uint256"
        }
      ],
      "stateMutability": "view",
      "type": "function"
    },
    {
      "inputs": [],
      "name": "getCommunityContributionAccount",
      "outputs": [
        {
          "internalType": "address",
          "name": "",
          "type": "address"
        }
      ],
      "stateMutability": "view",
      "type": "function"
    },
    {
      "inputs": [
        {
          "internalType": "address",
          "name": "_account",
          "type": "address"
        }
      ],
      "name": "getDetails",
      "outputs": [
        {
          "internalType": "uint256",
          "name": "_lastBlock",
          "type": "uint256"
        },
        {
          "internalType": "uint256",
          "name": "_balance",
          "type": "uint256"
        },
        {
          "internalType": "uint256",
          "name": "_zeroBlock",
          "type": "uint256"
        }
      ],
      "stateMutability": "view",
      "type": "function"
    },
    {
      "inputs": [],
      "name": "getGenerationAmount",
      "outputs": [
        {
          "internalType": "uint256",
          "name": "",
          "type": "uint256"
        }
      ],
      "stateMutability": "view",
      "type": "function"
    },
    {
      "inputs": [],
      "name": "getGenerationPeriod",
      "outputs": [
        {
          "internalType": "uint256",
          "name": "",
          "type": "uint256"
        }
      ],
      "stateMutability": "view",
      "type": "function"
    },
    {
      "inputs": [],
      "name": "getInitialBalance",
      "outputs": [
        {
          "internalType": "uint256",
          "name": "",
          "type": "uint256"
        }
      ],
      "stateMutability": "view",
      "type": "function"
    },
    {
      "inputs": [],
      "name": "getLifetime",
      "outputs": [
        {
          "internalType": "uint256",
          "name": "",
          "type": "uint256"
        }
      ],
      "stateMutability": "view",
      "type": "function"
    },
    {
      "inputs": [],
      "name": "getTransactionFee",
      "outputs": [
        {
          "internalType": "uint256",
          "name": "",
          "type": "uint256"
        }
      ],
      "stateMutability": "view",
      "type": "function"
    },
    {
      "inputs": [
        {
          "internalType": "address",
          "name": "spender",
          "type": "address"
        },
        {
          "internalType": "uint256",
          "name": "addedValue",
          "type": "uint256"
        }
      ],
      "name": "increaseAllowance",
      "outputs": [
        {
          "internalType": "bool",
          "name": "",
          "type": "bool"
        }
      ],
      "stateMutability": "nonpayable",
      "type": "function"
    },
    {
      "inputs": [
        {
          "internalType": "string",
          "name": "_name",
          "type": "string"
        },
        {
          "internalType": "string",
          "name": "_symbol",
          "type": "string"
        },
        {
          "internalType": "uint256",
          "name": "_lifetime",
          "type": "uint256"
        },
        {
          "internalType": "uint256",
          "name": "_generationAmount",
          "type": "uint256"
        },
        {
          "internalType": "uint256",
          "name": "_generationPeriod",
          "type": "uint256"
        },
        {
          "internalType": "uint256",
          "name": "_communityContribution",
          "type": "uint256"
        },
        {
          "internalType": "uint256",
          "name": "_transactionFee",
          "type": "uint256"
        },
        {
          "internalType": "uint256",
          "name": "_initialBalance",
          "type": "uint256"
        },
        {
          "internalType": "address",
          "name": "_communityContributionAccount",
          "type": "address"
        },
        {
          "internalType": "address",
          "name": "_controller",
          "type": "address"
        }
      ],
      "name": "initialize",
      "outputs": [],
      "stateMutability": "nonpayable",
      "type": "function"
    },
    {
      "inputs": [
        {
          "internalType": "address",
          "name": "_controller",
          "type": "address"
        }
      ],
      "name": "initialize",
      "outputs": [],
      "stateMutability": "nonpayable",
      "type": "function"
    },
    {
      "inputs": [
        {
          "internalType": "address",
          "name": "",
          "type": "address"
        }
      ],
      "name": "lastGenerationBlock",
      "outputs": [
        {
          "internalType": "uint256",
          "name": "",
          "type": "uint256"
        }
      ],
      "stateMutability": "view",
      "type": "function"
    },
    {
      "inputs": [
        {
          "internalType": "address",
          "name": "",
          "type": "address"
        }
      ],
      "name": "lastTransactionBlock",
      "outputs": [
        {
          "internalType": "uint256",
          "name": "",
          "type": "uint256"
        }
      ],
      "stateMutability": "view",
      "type": "function"
    },
    {
      "inputs": [
        {
          "internalType": "address",
          "name": "_account",
          "type": "address"
        }
      ],
      "name": "liveBalanceOf",
      "outputs": [
        {
          "internalType": "uint256",
          "name": "",
          "type": "uint256"
        }
      ],
      "stateMutability": "view",
      "type": "function"
    },
    {
      "inputs": [],
      "name": "name",
      "outputs": [
        {
          "internalType": "string",
          "name": "",
          "type": "string"
        }
      ],
      "stateMutability": "view",
      "type": "function"
    },
    {
      "inputs": [],
      "name": "numAccounts",
      "outputs": [
        {
          "internalType": "uint256",
          "name": "",
          "type": "uint256"
        }
      ],
      "stateMutability": "view",
      "type": "function"
    },
    {
      "inputs": [],
      "name": "symbol",
      "outputs": [
        {
          "internalType": "string",
          "name": "",
          "type": "string"
        }
      ],
      "stateMutability": "view",
      "type": "function"
    },
    {
      "inputs": [],
      "name": "totalSupply",
      "outputs": [
        {
          "internalType": "uint256",
          "name": "",
          "type": "uint256"
        }
      ],
      "stateMutability": "view",
      "type": "function"
    },
    {
      "inputs": [
        {
          "internalType": "address",
          "name": "_to",
          "type": "address"
        },
        {
          "internalType": "uint256",
          "name": "_value",
          "type": "uint256"
        }
      ],
      "name": "transfer",
      "outputs": [
        {
          "internalType": "bool",
          "name": "",
          "type": "bool"
        }
      ],
      "stateMutability": "nonpayable",
      "type": "function"
    },
    {
      "inputs": [
        {
          "internalType": "address",
          "name": "",
          "type": "address"
        },
        {
          "internalType": "address",
          "name": "",
          "type": "address"
        },
        {
          "internalType": "uint256",
          "name": "",
          "type": "uint256"
        }
      ],
      "name": "transferFrom",
      "outputs": [
        {
          "internalType": "bool",
          "name": "",
          "type": "bool"
        }
      ],
      "stateMutability": "nonpayable",
      "type": "function"
    },
    {
      "inputs": [
        {
          "internalType": "address",
          "name": "_account",
          "type": "address"
        }
      ],
      "name": "triggerOnchainBalanceUpdate",
      "outputs": [
        {
          "internalType": "uint256",
          "name": "",
          "type": "uint256"
        }
      ],
      "stateMutability": "nonpayable",
      "type": "function"
    },
    {
      "inputs": [
        {
          "internalType": "address",
          "name": "_account",
          "type": "address"
        }
      ],
      "name": "unapproveAccount",
      "outputs": [],
      "stateMutability": "nonpayable",
      "type": "function"
    },
    {
      "inputs": [
        {
          "internalType": "uint256",
          "name": "_communityContribution",
          "type": "uint256"
        }
      ],
      "name": "updateCommunityContribution",
      "outputs": [],
      "stateMutability": "nonpayable",
      "type": "function"
    },
    {
      "inputs": [
        {
          "internalType": "address",
          "name": "_newCommunityContributionAccount",
          "type": "address"
        }
      ],
      "name": "updateCommunityContributionAccount",
      "outputs": [],
      "stateMutability": "nonpayable",
      "type": "function"
    },
    {
      "inputs": [
        {
          "internalType": "uint256",
          "name": "_generationAmount",
          "type": "uint256"
        }
      ],
      "name": "updateGenerationAmount",
      "outputs": [],
      "stateMutability": "nonpayable",
      "type": "function"
    },
    {
      "inputs": [
        {
          "internalType": "uint256",
          "name": "_generationPeriod",
          "type": "uint256"
        }
      ],
      "name": "updateGenerationPeriod",
      "outputs": [],
      "stateMutability": "nonpayable",
      "type": "function"
    },
    {
      "inputs": [
        {
          "internalType": "uint256",
          "name": "_initialBalance",
          "type": "uint256"
        }
      ],
      "name": "updateInitialBalance",
      "outputs": [],
      "stateMutability": "nonpayable",
      "type": "function"
    },
    {
      "inputs": [
        {
          "internalType": "uint256",
          "name": "_lifetime",
          "type": "uint256"
        }
      ],
      "name": "updateLifetime",
      "outputs": [],
      "stateMutability": "nonpayable",
      "type": "function"
    },
    {
      "inputs": [
        {
          "internalType": "uint256",
          "name": "_transactionFee",
          "type": "uint256"
        }
      ],
      "name": "updateTransactionFee",
      "outputs": [],
      "stateMutability": "nonpayable",
      "type": "function"
    },
    {
      "inputs": [
        {
          "internalType": "address",
          "name": "_account",
          "type": "address"
        }
      ],
      "name": "verifyAccount",
      "outputs": [],
      "stateMutability": "nonpayable",
      "type": "function"
    },
    {
      "inputs": [
        {
          "internalType": "address",
          "name": "",
          "type": "address"
        }
      ],
      "name": "zeroBlock",
      "outputs": [
        {
          "internalType": "uint256",
          "name": "",
          "type": "uint256"
        }
      ],
      "stateMutability": "view",
      "type": "function"
    },
    {
      "stateMutability": "payable",
      "type": "receive"
    }
  ],
  "bytecode": "0x608060405234801561001057600080fd5b5061596480620000216000396000f3fe6080604052600436106102765760003560e01c806381e6e0831161014f578063b9a84a0d116100c1578063ed451dff1161007a578063ed451dff14611097578063ed52f182146110d2578063f16dfbe914611139578063f77c47911461118a578063f9128ed5146111cb578063fbda28dc14611230576102cc565b8063b9a84a0d14610eae578063c4d66de814610ee9578063dd62ed3e14610f3a578063e3321e1f14610fbf578063e49ac4cd14611009578063e60e0de614611046576102cc565b80639803f216116101135780639803f21614610cb65780639a40e4a114610d11578063a457c2d714610d3c578063a707603814610dad578063a9059cbb14610e12578063a990ecd414610e83576102cc565b806381e6e08314610b6a57806385d7910214610b955780638ce25a9314610bc05780638f2553e614610beb57806395d89b4114610c26576102cc565b806339509351116101e857806354ffa8ef116101ac57806354ffa8ef146109c85780635784969f14610a035780636f22c0b514610a3e5780636fb17cc514610a7f57806370a0823114610aaa57806379cc679014610b0f576102cc565b8063395093511461083b5780633cebb823146108ac57806342966c68146108fd57806342cbb15c14610938578063544aeaf614610963576102cc565b806318160ddd1161023a57806318160ddd1461049d578063194462da146104c85780631d718f04146106a457806323b872dd1461070957806330289c611461079a578063313ce5671461080d576102cc565b806302a69e48146102d157806306fdde0314610336578063095ea7b3146103c65780630db146e6146104375780630ee9769614610462576102cc565b366102cc576040517f08c379a000000000000000000000000000000000000000000000000000000000815260040180806020018281038252602181526020018061569d6021913960400191505060405180910390fd5b600080fd5b3480156102dd57600080fd5b50610320600480360360208110156102f457600080fd5b81019080803573ffffffffffffffffffffffffffffffffffffffff169060200190929190505050611281565b6040518082815260200191505060405180910390f35b34801561034257600080fd5b5061034b61158c565b6040518080602001828103825283818151815260200191508051906020019080838360005b8381101561038b578082015181840152602081019050610370565b50505050905090810190601f1680156103b85780820380516001836020036101000a031916815260200191505b509250505060405180910390f35b3480156103d257600080fd5b5061041f600480360360408110156103e957600080fd5b81019080803573ffffffffffffffffffffffffffffffffffffffff1690602001909291908035906020019092919050505061162e565b60405180821515815260200191505060405180910390f35b34801561044357600080fd5b5061044c61164c565b6040518082815260200191505060405180910390f35b34801561046e57600080fd5b5061049b6004803603602081101561048557600080fd5b8101908080359060200190929190505050611659565b005b3480156104a957600080fd5b506104b261188b565b6040518082815260200191505060405180910390f35b3480156104d457600080fd5b506106a260048036036101408110156104ec57600080fd5b810190808035906020019064010000000081111561050957600080fd5b82018360208201111561051b57600080fd5b8035906020019184600183028401116401000000008311171561053d57600080fd5b91908080601f016020809104026020016040519081016040528093929190818152602001838380828437600081840152601f19601f820116905080830192505050505050509192919290803590602001906401000000008111156105a057600080fd5b8201836020820111156105b257600080fd5b803590602001918460018302840111640100000000831117156105d457600080fd5b91908080601f016020809104026020016040519081016040528093929190818152602001838380828437600081840152601f19601f820116905080830192505050505050509192919290803590602001909291908035906020019092919080359060200190929190803590602001909291908035906020019092919080359060200190929190803573ffffffffffffffffffffffffffffffffffffffff169060200190929190803573ffffffffffffffffffffffffffffffffffffffff169060200190929190505050611895565b005b3480156106b057600080fd5b506106f3600480360360208110156106c757600080fd5b81019080803573ffffffffffffffffffffffffffffffffffffffff169060200190929190505050611a77565b6040518082815260200191505060405180910390f35b34801561071557600080fd5b506107826004803603606081101561072c57600080fd5b81019080803573ffffffffffffffffffffffffffffffffffffffff169060200190929190803573ffffffffffffffffffffffffffffffffffffffff16906020019092919080359060200190929190505050611a8f565b60405180821515815260200191505060405180910390f35b3480156107a657600080fd5b506107e9600480360360208110156107bd57600080fd5b81019080803573ffffffffffffffffffffffffffffffffffffffff169060200190929190505050611aff565b60405180848152602001838152602001828152602001935050505060405180910390f35b34801561081957600080fd5b50610822611b9a565b604051808260ff16815260200191505060405180910390f35b34801561084757600080fd5b506108946004803603604081101561085e57600080fd5b81019080803573ffffffffffffffffffffffffffffffffffffffff16906020019092919080359060200190929190505050611bb1565b60405180821515815260200191505060405180910390f35b3480156108b857600080fd5b506108fb600480360360208110156108cf57600080fd5b81019080803573ffffffffffffffffffffffffffffffffffffffff169060200190929190505050611c64565b005b34801561090957600080fd5b506109366004803603602081101561092057600080fd5b8101908080359060200190929190505050611db8565b005b34801561094457600080fd5b5061094d611dcc565b6040518082815260200191505060405180910390f35b34801561096f57600080fd5b506109b26004803603602081101561098657600080fd5b81019080803573ffffffffffffffffffffffffffffffffffffffff169060200190929190505050611dd4565b6040518082815260200191505060405180910390f35b3480156109d457600080fd5b50610a01600480360360208110156109eb57600080fd5b8101908080359060200190929190505050611dec565b005b348015610a0f57600080fd5b50610a3c60048036036020811015610a2657600080fd5b810190808035906020019092919050505061201e565b005b348015610a4a57600080fd5b50610a53612250565b604051808273ffffffffffffffffffffffffffffffffffffffff16815260200191505060405180910390f35b348015610a8b57600080fd5b50610a9461227d565b6040518082815260200191505060405180910390f35b348015610ab657600080fd5b50610af960048036036020811015610acd57600080fd5b81019080803573ffffffffffffffffffffffffffffffffffffffff16906020019092919050505061228a565b6040518082815260200191505060405180910390f35b348015610b1b57600080fd5b50610b6860048036036040811015610b3257600080fd5b81019080803573ffffffffffffffffffffffffffffffffffffffff169060200190929190803590602001909291905050506122d3565b005b348015610b7657600080fd5b50610b7f612335565b6040518082815260200191505060405180910390f35b348015610ba157600080fd5b50610baa612342565b6040518082815260200191505060405180910390f35b348015610bcc57600080fd5b50610bd561234f565b6040518082815260200191505060405180910390f35b348015610bf757600080fd5b50610c2460048036036020811015610c0e57600080fd5b8101908080359060200190929190505050612355565b005b348015610c3257600080fd5b50610c3b6125e2565b6040518080602001828103825283818151815260200191508051906020019080838360005b83811015610c7b578082015181840152602081019050610c60565b50505050905090810190601f168015610ca85780820380516001836020036101000a031916815260200191505b509250505060405180910390f35b348015610cc257600080fd5b50610d0f60048036036040811015610cd957600080fd5b81019080803573ffffffffffffffffffffffffffffffffffffffff16906020019092919080359060200190929190505050612684565b005b348015610d1d57600080fd5b50610d26612692565b6040518082815260200191505060405180910390f35b348015610d4857600080fd5b50610d9560048036036040811015610d5f57600080fd5b81019080803573ffffffffffffffffffffffffffffffffffffffff1690602001909291908035906020019092919050505061269f565b60405180821515815260200191505060405180910390f35b348015610db957600080fd5b50610dfc60048036036020811015610dd057600080fd5b81019080803573ffffffffffffffffffffffffffffffffffffffff16906020019092919050505061276c565b6040518082815260200191505060405180910390f35b348015610e1e57600080fd5b50610e6b60048036036040811015610e3557600080fd5b81019080803573ffffffffffffffffffffffffffffffffffffffff16906020019092919080359060200190929190505050612784565b60405180821515815260200191505060405180910390f35b348015610e8f57600080fd5b50610e98612d18565b6040518082815260200191505060405180910390f35b348015610eba57600080fd5b50610ee760048036036020811015610ed157600080fd5b8101908080359060200190929190505050612d25565b005b348015610ef557600080fd5b50610f3860048036036020811015610f0c57600080fd5b81019080803573ffffffffffffffffffffffffffffffffffffffff169060200190929190505050612f57565b005b348015610f4657600080fd5b50610fa960048036036040811015610f5d57600080fd5b81019080803573ffffffffffffffffffffffffffffffffffffffff169060200190929190803573ffffffffffffffffffffffffffffffffffffffff169060200190929190505050613113565b6040518082815260200191505060405180910390f35b348015610fcb57600080fd5b5061100760048036036040811015610fe257600080fd5b81019080803560ff16906020019092919080351515906020019092919050505061319a565b005b34801561101557600080fd5b506110446004803603602081101561102c57600080fd5b81019080803515159060200190929190505050613329565b005b34801561105257600080fd5b506110956004803603602081101561106957600080fd5b81019080803573ffffffffffffffffffffffffffffffffffffffff16906020019092919050505061348c565b005b3480156110a357600080fd5b506110d0600480360360208110156110ba57600080fd5b810190808035906020019092919050505061370d565b005b3480156110de57600080fd5b50611121600480360360208110156110f557600080fd5b81019080803573ffffffffffffffffffffffffffffffffffffffff16906020019092919050505061393f565b60405180821515815260200191505060405180910390f35b34801561114557600080fd5b506111886004803603602081101561115c57600080fd5b81019080803573ffffffffffffffffffffffffffffffffffffffff16906020019092919050505061395f565b005b34801561119657600080fd5b5061119f613caa565b604051808273ffffffffffffffffffffffffffffffffffffffff16815260200191505060405180910390f35b3480156111d757600080fd5b5061121a600480360360208110156111ee57600080fd5b81019080803573ffffffffffffffffffffffffffffffffffffffff169060200190929190505050613cd0565b6040518082815260200191505060405180910390f35b34801561123c57600080fd5b5061127f6004803603602081101561125357600080fd5b81019080803573ffffffffffffffffffffffffffffffffffffffff169060200190929190505050614266565b005b60008073__Calculations__________________________63d6f8458260d260008673ffffffffffffffffffffffffffffffffffffffff1673ffffffffffffffffffffffffffffffffffffffff168152602001908152602001600020546112e78661228a565b4360d460008973ffffffffffffffffffffffffffffffffffffffff1673ffffffffffffffffffffffffffffffffffffffff168152602001908152602001600020546040518563ffffffff1660e01b81526004018085815260200184815260200183815260200182815260200194505050505060206040518083038186803b15801561137157600080fd5b505af4158015611385573d6000803e3d6000fd5b505050506040513d602081101561139b57600080fd5b8101908080519060200190929190505050905060006113cb826113bd8661228a565b6144fc90919063ffffffff16565b9050600060d360008673ffffffffffffffffffffffffffffffffffffffff1673ffffffffffffffffffffffffffffffffffffffff16815260200190815260200160002054141561141f578092505050611587565b600060d560008673ffffffffffffffffffffffffffffffffffffffff1673ffffffffffffffffffffffffffffffffffffffff16815260200190815260200160002060009054906101000a900460ff161561156e5773__Calculations__________________________637ee6b8cf4360d360008973ffffffffffffffffffffffffffffffffffffffff1673ffffffffffffffffffffffffffffffffffffffff1681526020019081526020016000205460cb6000015460cb6002015460cb600101546040518663ffffffff1660e01b8152600401808681526020018581526020018481526020018381526020018281526020019550505050505060206040518083038186803b15801561153057600080fd5b505af4158015611544573d6000803e3d6000fd5b505050506040513d602081101561155a57600080fd5b810190808051906020019092919050505090505b611581818361454690919063ffffffff16565b93505050505b919050565b606060688054600181600116156101000203166002900480601f0160208091040260200160405190810160405280929190818152602001828054600181600116156101000203166002900480156116245780601f106115f957610100808354040283529160200191611624565b820191906000526020600020905b81548152906001019060200180831161160757829003601f168201915b5050505050905090565b600061164261163b6145ce565b84846145d6565b6001905092915050565b600060cb60030154905090565b60c960009054906101000a900473ffffffffffffffffffffffffffffffffffffffff1673ffffffffffffffffffffffffffffffffffffffff163373ffffffffffffffffffffffffffffffffffffffff161461171c576040517f08c379a00000000000000000000000000000000000000000000000000000000081526004018080602001828103825260208152602001807f436f6e74726f6c6c6572206163636f756e742f636f6e7472616374206f6e6c7981525060200191505060405180910390fd5b60026000151560c960149054906101000a900460ff161515146117a7576040517f08c379a00000000000000000000000000000000000000000000000000000000081526004018080602001828103825260208152602001807f46756e6374696f6e206675736520686173206265656e2074726967676572656481525060200191505060405180910390fd5b6000151560ca8260ff16602081106117bb57fe5b602091828204019190069054906101000a900460ff16151514611846576040517f08c379a00000000000000000000000000000000000000000000000000000000081526004018080602001828103825260208152602001807f46756e6374696f6e206675736520686173206265656e2074726967676572656481525060200191505060405180910390fd5b8160cb600501819055507fb0eafbd7bf0dfd994828ccc4941e26d6153f03fa274641773364c469893ecb4d826040518082815260200191505060405180910390a15050565b6000606754905090565b600060019054906101000a900460ff16806118b457506118b36147cd565b5b806118ca575060008054906101000a900460ff16155b61191f576040517f08c379a000000000000000000000000000000000000000000000000000000000815260040180806020018281038252602e815260200180615750602e913960400191505060405180910390fd5b60008060019054906101000a900460ff16159050801561196f576001600060016101000a81548160ff02191690831515021790555060016000806101000a81548160ff0219169083151502179055505b61197882612f57565b6119828b8b6147e4565b6000839050600073ffffffffffffffffffffffffffffffffffffffff168473ffffffffffffffffffffffffffffffffffffffff1614156119c0573390505b8960cb600001819055508860cb600201819055508760cb600101819055508660cb600401819055508560cb600501819055508460cb600301819055508060cb60060160006101000a81548173ffffffffffffffffffffffffffffffffffffffff021916908373ffffffffffffffffffffffffffffffffffffffff160217905550600060d681905550508015611a6a5760008060016101000a81548160ff0219169083151502179055505b5050505050505050505050565b60d36020528060005260406000206000915090505481565b60006040517f08c379a00000000000000000000000000000000000000000000000000000000081526004018080602001828103825260158152602001807f7472616e7366657246726f6d2064697361626c6564000000000000000000000081525060200191505060405180910390fd5b600080600060d260008573ffffffffffffffffffffffffffffffffffffffff1673ffffffffffffffffffffffffffffffffffffffff168152602001908152602001600020549250611b4f8461228a565b915060d460008573ffffffffffffffffffffffffffffffffffffffff1673ffffffffffffffffffffffffffffffffffffffff1681526020019081526020016000205490509193909250565b6000606a60009054906101000a900460ff16905090565b6000611c5a611bbe6145ce565b84611c558560666000611bcf6145ce565b73ffffffffffffffffffffffffffffffffffffffff1673ffffffffffffffffffffffffffffffffffffffff16815260200190815260200160002060008973ffffffffffffffffffffffffffffffffffffffff1673ffffffffffffffffffffffffffffffffffffffff1681526020019081526020016000205461454690919063ffffffff16565b6145d6565b6001905092915050565b60c960009054906101000a900473ffffffffffffffffffffffffffffffffffffffff1673ffffffffffffffffffffffffffffffffffffffff163373ffffffffffffffffffffffffffffffffffffffff1614611d27576040517f08c379a00000000000000000000000000000000000000000000000000000000081526004018080602001828103825260208152602001807f436f6e74726f6c6c6572206163636f756e742f636f6e7472616374206f6e6c7981525060200191505060405180910390fd5b8060c960006101000a81548173ffffffffffffffffffffffffffffffffffffffff021916908373ffffffffffffffffffffffffffffffffffffffff1602179055507fc0c3fe6333763f87ec50ad1366067ab6f03fd677c62f3c20e50e9446afd32ef681604051808273ffffffffffffffffffffffffffffffffffffffff16815260200191505060405180910390a150565b611dc9611dc36145ce565b826148f6565b50565b600043905090565b60d46020528060005260406000206000915090505481565b60c960009054906101000a900473ffffffffffffffffffffffffffffffffffffffff1673ffffffffffffffffffffffffffffffffffffffff163373ffffffffffffffffffffffffffffffffffffffff1614611eaf576040517f08c379a00000000000000000000000000000000000000000000000000000000081526004018080602001828103825260208152602001807f436f6e74726f6c6c6572206163636f756e742f636f6e7472616374206f6e6c7981525060200191505060405180910390fd5b60016000151560c960149054906101000a900460ff16151514611f3a576040517f08c379a00000000000000000000000000000000000000000000000000000000081526004018080602001828103825260208152602001807f46756e6374696f6e206675736520686173206265656e2074726967676572656481525060200191505060405180910390fd5b6000151560ca8260ff1660208110611f4e57fe5b602091828204019190069054906101000a900460ff16151514611fd9576040517f08c379a00000000000000000000000000000000000000000000000000000000081526004018080602001828103825260208152602001807f46756e6374696f6e206675736520686173206265656e2074726967676572656481525060200191505060405180910390fd5b8160cb600401819055507ffbcfe400d40f66821e607b6730b04c270d0db7c3896db24e37c8faf589b2dce2826040518082815260200191505060405180910390a15050565b60c960009054906101000a900473ffffffffffffffffffffffffffffffffffffffff1673ffffffffffffffffffffffffffffffffffffffff163373ffffffffffffffffffffffffffffffffffffffff16146120e1576040517f08c379a00000000000000000000000000000000000000000000000000000000081526004018080602001828103825260208152602001807f436f6e74726f6c6c6572206163636f756e742f636f6e7472616374206f6e6c7981525060200191505060405180910390fd5b60056000151560c960149054906101000a900460ff1615151461216c576040517f08c379a00000000000000000000000000000000000000000000000000000000081526004018080602001828103825260208152602001807f46756e6374696f6e206675736520686173206265656e2074726967676572656481525060200191505060405180910390fd5b6000151560ca8260ff166020811061218057fe5b602091828204019190069054906101000a900460ff1615151461220b576040517f08c379a00000000000000000000000000000000000000000000000000000000081526004018080602001828103825260208152602001807f46756e6374696f6e206675736520686173206265656e2074726967676572656481525060200191505060405180910390fd5b8160cb600001819055507f8fb16ec2895927adc6e3a99733210699b27690fdccf3ccf84d2be61df915f923826040518082815260200191505060405180910390a15050565b600060cb60060160009054906101000a900473ffffffffffffffffffffffffffffffffffffffff16905090565b600060cb60010154905090565b6000606560008373ffffffffffffffffffffffffffffffffffffffff1673ffffffffffffffffffffffffffffffffffffffff168152602001908152602001600020549050919050565b60006123128260405180606001604052806024815260200161577e60249139612303866122fe6145ce565b613113565b614abc9092919063ffffffff16565b9050612326836123206145ce565b836145d6565b61233083836148f6565b505050565b600060cb60000154905090565b600060cb60050154905090565b60d65481565b60c960009054906101000a900473ffffffffffffffffffffffffffffffffffffffff1673ffffffffffffffffffffffffffffffffffffffff163373ffffffffffffffffffffffffffffffffffffffff1614612418576040517f08c379a00000000000000000000000000000000000000000000000000000000081526004018080602001828103825260208152602001807f436f6e74726f6c6c6572206163636f756e742f636f6e7472616374206f6e6c7981525060200191505060405180910390fd5b60046000151560c960149054906101000a900460ff161515146124a3576040517f08c379a00000000000000000000000000000000000000000000000000000000081526004018080602001828103825260208152602001807f46756e6374696f6e206675736520686173206265656e2074726967676572656481525060200191505060405180910390fd5b6000151560ca8260ff16602081106124b757fe5b602091828204019190069054906101000a900460ff16151514612542576040517f08c379a00000000000000000000000000000000000000000000000000000000081526004018080602001828103825260208152602001807f46756e6374696f6e206675736520686173206265656e2074726967676572656481525060200191505060405180910390fd5b600060d6541461259d576040517f08c379a00000000000000000000000000000000000000000000000000000000081526004018080602001828103825260428152602001806157c36042913960600191505060405180910390fd5b8160cb600101819055507fa33ad833914e8c9f3e7ce6b82802aa3e930cf6dfde2d8a6149a42f6e78fb2712826040518082815260200191505060405180910390a15050565b606060698054600181600116156101000203166002900480601f01602080910402602001604051908101604052809291908181526020018280546001816001161561010002031660029004801561267a5780601f1061264f5761010080835404028352916020019161267a565b820191906000526020600020905b81548152906001019060200180831161265d57829003601f168201915b5050505050905090565b61268e82826148f6565b5050565b600060cb60040154905090565b60006127626126ac6145ce565b8461275d856040518060600160405280602581526020016158d060259139606660006126d66145ce565b73ffffffffffffffffffffffffffffffffffffffff1673ffffffffffffffffffffffffffffffffffffffff16815260200190815260200160002060008a73ffffffffffffffffffffffffffffffffffffffff1673ffffffffffffffffffffffffffffffffffffffff16815260200190815260200160002054614abc9092919063ffffffff16565b6145d6565b6001905092915050565b60d26020528060005260406000206000915090505481565b60008060007fdd970dd9b5bfe707922155b058a407655cb18288b807e2216442bca8ad83d6b56127b33361228a565b60405180806020018381526020018281038252601c8152602001807f53656e6465722062616c616e6365206265666f726520757064617465000000008152506020019250505060405180910390a1600061280c33613cd0565b90507fdd970dd9b5bfe707922155b058a407655cb18288b807e2216442bca8ad83d6b56128383361228a565b60405180806020018381526020018281038252601b8152602001807f53656e6465722062616c616e63652061667465722075706461746500000000008152506020019250505060405180910390a17fdd970dd9b5bfe707922155b058a407655cb18288b807e2216442bca8ad83d6b56128b08761228a565b60405180806020018381526020018281038252601f8152602001807f526563697069656e742062616c616e6365206265666f726520757064617465008152506020019250505060405180910390a1600061290987613cd0565b90507fdd970dd9b5bfe707922155b058a407655cb18288b807e2216442bca8ad83d6b56129358861228a565b60405180806020018381526020018281038252601e8152602001807f526563697069656e742062616c616e63652061667465722075706461746500008152506020019250505060405180910390a18561298d3361228a565b10156129e4576040517f08c379a000000000000000000000000000000000000000000000000000000000815260040180806020018281038252602381526020018061582a6023913960400191505060405180910390fd5b6129f98660cb6005015460cb60040154614b7c565b80945081955050506000612a2884612a1a878a6144fc90919063ffffffff16565b6144fc90919063ffffffff16565b905073__Calculations__________________________6320147c6f82612a4e8b61228a565b4360cb6000015460d460008f73ffffffffffffffffffffffffffffffffffffffff1673ffffffffffffffffffffffffffffffffffffffff168152602001908152602001600020546040518663ffffffff1660e01b8152600401808681526020018581526020018481526020018381526020018281526020019550505050505060206040518083038186803b158015612ae557600080fd5b505af4158015612af9573d6000803e3d6000fd5b505050506040513d6020811015612b0f57600080fd5b810190808051906020019092919050505060d460008a73ffffffffffffffffffffffffffffffffffffffff1673ffffffffffffffffffffffffffffffffffffffff168152602001908152602001600020819055504360d260008a73ffffffffffffffffffffffffffffffffffffffff1673ffffffffffffffffffffffffffffffffffffffff1681526020019081526020016000205414612bee574360d260008a73ffffffffffffffffffffffffffffffffffffffff1673ffffffffffffffffffffffffffffffffffffffff168152602001908152602001600020819055505b4360d260003373ffffffffffffffffffffffffffffffffffffffff1673ffffffffffffffffffffffffffffffffffffffff1681526020019081526020016000205414612c79574360d260003373ffffffffffffffffffffffffffffffffffffffff1673ffffffffffffffffffffffffffffffffffffffff168152602001908152602001600020819055505b612c838882614e19565b508773ffffffffffffffffffffffffffffffffffffffff163373ffffffffffffffffffffffffffffffffffffffff167fa3c1c81272d3f33b878008270aebb295c7ed4cdf3012646ea120616d132086218388888888604051808681526020018581526020018481526020018381526020018281526020019550505050505060405180910390a360019550505050505092915050565b600060cb60020154905090565b60c960009054906101000a900473ffffffffffffffffffffffffffffffffffffffff1673ffffffffffffffffffffffffffffffffffffffff163373ffffffffffffffffffffffffffffffffffffffff1614612de8576040517f08c379a00000000000000000000000000000000000000000000000000000000081526004018080602001828103825260208152602001807f436f6e74726f6c6c6572206163636f756e742f636f6e7472616374206f6e6c7981525060200191505060405180910390fd5b60036000151560c960149054906101000a900460ff16151514612e73576040517f08c379a00000000000000000000000000000000000000000000000000000000081526004018080602001828103825260208152602001807f46756e6374696f6e206675736520686173206265656e2074726967676572656481525060200191505060405180910390fd5b6000151560ca8260ff1660208110612e8757fe5b602091828204019190069054906101000a900460ff16151514612f12576040517f08c379a00000000000000000000000000000000000000000000000000000000081526004018080602001828103825260208152602001807f46756e6374696f6e206675736520686173206265656e2074726967676572656481525060200191505060405180910390fd5b8160cb600201819055507f430ef2291775088707f0aed2cc1058fee3b7f2f99b10dfa4107d1509b86da3f5826040518082815260200191505060405180910390a15050565b600060019054906101000a900460ff1680612f765750612f756147cd565b5b80612f8c575060008054906101000a900460ff16155b612fe1576040517f08c379a000000000000000000000000000000000000000000000000000000000815260040180806020018281038252602e815260200180615750602e913960400191505060405180910390fd5b60008060019054906101000a900460ff161590508015613031576001600060016101000a81548160ff02191690831515021790555060016000806101000a81548160ff0219169083151502179055505b600073ffffffffffffffffffffffffffffffffffffffff168273ffffffffffffffffffffffffffffffffffffffff1614156130ac573360c960006101000a81548173ffffffffffffffffffffffffffffffffffffffff021916908373ffffffffffffffffffffffffffffffffffffffff1602179055506130ee565b8160c960006101000a81548173ffffffffffffffffffffffffffffffffffffffff021916908373ffffffffffffffffffffffffffffffffffffffff1602179055505b801561310f5760008060016101000a81548160ff0219169083151502179055505b5050565b6000606660008473ffffffffffffffffffffffffffffffffffffffff1673ffffffffffffffffffffffffffffffffffffffff16815260200190815260200160002060008373ffffffffffffffffffffffffffffffffffffffff1673ffffffffffffffffffffffffffffffffffffffff16815260200190815260200160002054905092915050565b60c960009054906101000a900473ffffffffffffffffffffffffffffffffffffffff1673ffffffffffffffffffffffffffffffffffffffff163373ffffffffffffffffffffffffffffffffffffffff161461325d576040517f08c379a00000000000000000000000000000000000000000000000000000000081526004018080602001828103825260208152602001807f436f6e74726f6c6c6572206163636f756e742f636f6e7472616374206f6e6c7981525060200191505060405180910390fd5b60011515811515146132ba576040517f08c379a000000000000000000000000000000000000000000000000000000000815260040180806020018281038252604b8152602001806156be604b913960600191505060405180910390fd5b600160ca8360ff16602081106132cc57fe5b602091828204019190066101000a81548160ff0219169083151502179055507f0a1c4fbbe900dd991589095fcecc99c37b45915eb6e6574e7398954e874bbebe82604051808260ff16815260200191505060405180910390a15050565b60c960009054906101000a900473ffffffffffffffffffffffffffffffffffffffff1673ffffffffffffffffffffffffffffffffffffffff163373ffffffffffffffffffffffffffffffffffffffff16146133ec576040517f08c379a00000000000000000000000000000000000000000000000000000000081526004018080602001828103825260208152602001807f436f6e74726f6c6c6572206163636f756e742f636f6e7472616374206f6e6c7981525060200191505060405180910390fd5b80613442576040517f08c379a000000000000000000000000000000000000000000000000000000000815260040180806020018281038252605f815260200180615871605f913960600191505060405180910390fd5b600160c960146101000a81548160ff0219169083151502179055507f3f6efc34971655abc7da08a1bf5e861a7e41e21c617aa42f0a9e1643ed4c199d60405160405180910390a150565b60c960009054906101000a900473ffffffffffffffffffffffffffffffffffffffff1673ffffffffffffffffffffffffffffffffffffffff163373ffffffffffffffffffffffffffffffffffffffff161461354f576040517f08c379a00000000000000000000000000000000000000000000000000000000081526004018080602001828103825260208152602001807f436f6e74726f6c6c6572206163636f756e742f636f6e7472616374206f6e6c7981525060200191505060405180910390fd5b600080151560c960149054906101000a900460ff161515146135d9576040517f08c379a00000000000000000000000000000000000000000000000000000000081526004018080602001828103825260208152602001807f46756e6374696f6e206675736520686173206265656e2074726967676572656481525060200191505060405180910390fd5b6000151560ca8260ff16602081106135ed57fe5b602091828204019190069054906101000a900460ff16151514613678576040517f08c379a00000000000000000000000000000000000000000000000000000000081526004018080602001828103825260208152602001807f46756e6374696f6e206675736520686173206265656e2074726967676572656481525060200191505060405180910390fd5b8160cb60060160006101000a81548173ffffffffffffffffffffffffffffffffffffffff021916908373ffffffffffffffffffffffffffffffffffffffff1602179055507f41ac1fb38d2383f4a7a06cb5a6cc6e099612e9f8835233773dfd98ef487f0bb082604051808273ffffffffffffffffffffffffffffffffffffffff16815260200191505060405180910390a15050565b60c960009054906101000a900473ffffffffffffffffffffffffffffffffffffffff1673ffffffffffffffffffffffffffffffffffffffff163373ffffffffffffffffffffffffffffffffffffffff16146137d0576040517f08c379a00000000000000000000000000000000000000000000000000000000081526004018080602001828103825260208152602001807f436f6e74726f6c6c6572206163636f756e742f636f6e7472616374206f6e6c7981525060200191505060405180910390fd5b60086000151560c960149054906101000a900460ff1615151461385b576040517f08c379a00000000000000000000000000000000000000000000000000000000081526004018080602001828103825260208152602001807f46756e6374696f6e206675736520686173206265656e2074726967676572656481525060200191505060405180910390fd5b6000151560ca8260ff166020811061386f57fe5b602091828204019190069054906101000a900460ff161515146138fa576040517f08c379a00000000000000000000000000000000000000000000000000000000081526004018080602001828103825260208152602001807f46756e6374696f6e206675736520686173206265656e2074726967676572656481525060200191505060405180910390fd5b8160cb600301819055507ffe907f1e713307f4d281f5c3f23673f83fb7c0ae005ff34aec76633abc90ab8c826040518082815260200191505060405180910390a15050565b60d56020528060005260406000206000915054906101000a900460ff1681565b60c960009054906101000a900473ffffffffffffffffffffffffffffffffffffffff1673ffffffffffffffffffffffffffffffffffffffff163373ffffffffffffffffffffffffffffffffffffffff1614613a22576040517f08c379a00000000000000000000000000000000000000000000000000000000081526004018080602001828103825260208152602001807f436f6e74726f6c6c6572206163636f756e742f636f6e7472616374206f6e6c7981525060200191505060405180910390fd5b600160d560008373ffffffffffffffffffffffffffffffffffffffff1673ffffffffffffffffffffffffffffffffffffffff16815260200190815260200160002060006101000a81548160ff021916908315150217905550600060cb60030154118015613ace5750600060d260008373ffffffffffffffffffffffffffffffffffffffff1673ffffffffffffffffffffffffffffffffffffffff16815260200190815260200160002054145b15613c645760d660008154809291906001019190505550613af48160cb60030154614e37565b613b0c60cb600001544361454690919063ffffffff16565b60d460008373ffffffffffffffffffffffffffffffffffffffff1673ffffffffffffffffffffffffffffffffffffffff168152602001908152602001600020819055504360d260008373ffffffffffffffffffffffffffffffffffffffff1673ffffffffffffffffffffffffffffffffffffffff168152602001908152602001600020819055504360d360008373ffffffffffffffffffffffffffffffffffffffff1673ffffffffffffffffffffffffffffffffffffffff168152602001908152602001600020819055508073ffffffffffffffffffffffffffffffffffffffff163073ffffffffffffffffffffffffffffffffffffffff167fa3c1c81272d3f33b878008270aebb295c7ed4cdf3012646ea120616d1320862160cb60030154600080600080604051808681526020018581526020018481526020018381526020018281526020019550505050505060405180910390a35b8073ffffffffffffffffffffffffffffffffffffffff167f619bf7388c3d01e96351d15ea181010fb3ae477b7d27b1bf9a40d0f9ac526f6560405160405180910390a250565b60c960009054906101000a900473ffffffffffffffffffffffffffffffffffffffff1681565b60008073__Calculations__________________________63d6f8458260d260008673ffffffffffffffffffffffffffffffffffffffff1673ffffffffffffffffffffffffffffffffffffffff16815260200190815260200160002054613d368661228a565b4360d460008973ffffffffffffffffffffffffffffffffffffffff1673ffffffffffffffffffffffffffffffffffffffff168152602001908152602001600020546040518563ffffffff1660e01b81526004018085815260200184815260200183815260200182815260200194505050505060206040518083038186803b158015613dc057600080fd5b505af4158015613dd4573d6000803e3d6000fd5b505050506040513d6020811015613dea57600080fd5b81019080805190602001909291905050509050600080821115613e2157613e1184836148f6565b613e1a8461228a565b9050613e2d565b613e2a8461228a565b90505b600060d560008673ffffffffffffffffffffffffffffffffffffffff1673ffffffffffffffffffffffffffffffffffffffff16815260200190815260200160002060009054906101000a900460ff16156142025773__Calculations__________________________637ee6b8cf4360d360008973ffffffffffffffffffffffffffffffffffffffff1673ffffffffffffffffffffffffffffffffffffffff1681526020019081526020016000205460cb6000015460cb6002015460cb600101546040518663ffffffff1660e01b8152600401808681526020018581526020018481526020018381526020018281526020019550505050505060206040518083038186803b158015613f3e57600080fd5b505af4158015613f52573d6000803e3d6000fd5b505050506040513d6020811015613f6857600080fd5b81019080805190602001909291905050509050600081111561420157613f8e8582614e37565b61408360cb6001015473__Calculations__________________________63542a9c834360d360008b73ffffffffffffffffffffffffffffffffffffffff1673ffffffffffffffffffffffffffffffffffffffff1681526020019081526020016000205460cb600101546040518463ffffffff1660e01b815260040180848152602001838152602001828152602001935050505060206040518083038186803b15801561403a57600080fd5b505af415801561404e573d6000803e3d6000fd5b505050506040513d602081101561406457600080fd5b810190808051906020019092919050505061500090919063ffffffff16565b60d360008773ffffffffffffffffffffffffffffffffffffffff1673ffffffffffffffffffffffffffffffffffffffff1681526020019081526020016000206000828254019250508190555073__Calculations__________________________6320147c6f82844360cb6000015460d460008c73ffffffffffffffffffffffffffffffffffffffff1673ffffffffffffffffffffffffffffffffffffffff168152602001908152602001600020546040518663ffffffff1660e01b8152600401808681526020018581526020018481526020018381526020018281526020019550505050505060206040518083038186803b15801561418257600080fd5b505af4158015614196573d6000803e3d6000fd5b505050506040513d60208110156141ac57600080fd5b810190808051906020019092919050505060d460008773ffffffffffffffffffffffffffffffffffffffff1673ffffffffffffffffffffffffffffffffffffffff168152602001908152602001600020819055505b5b60008311806142115750600081115b1561425b574360d260008773ffffffffffffffffffffffffffffffffffffffff1673ffffffffffffffffffffffffffffffffffffffff168152602001908152602001600020819055505b809350505050919050565b60c960009054906101000a900473ffffffffffffffffffffffffffffffffffffffff1673ffffffffffffffffffffffffffffffffffffffff163373ffffffffffffffffffffffffffffffffffffffff1614614329576040517f08c379a00000000000000000000000000000000000000000000000000000000081526004018080602001828103825260208152602001807f436f6e74726f6c6c6572206163636f756e742f636f6e7472616374206f6e6c7981525060200191505060405180910390fd5b60066000151560c960149054906101000a900460ff161515146143b4576040517f08c379a00000000000000000000000000000000000000000000000000000000081526004018080602001828103825260208152602001807f46756e6374696f6e206675736520686173206265656e2074726967676572656481525060200191505060405180910390fd5b6000151560ca8260ff16602081106143c857fe5b602091828204019190069054906101000a900460ff16151514614453576040517f08c379a00000000000000000000000000000000000000000000000000000000081526004018080602001828103825260208152602001807f46756e6374696f6e206675736520686173206265656e2074726967676572656481525060200191505060405180910390fd5b600060d560008473ffffffffffffffffffffffffffffffffffffffff1673ffffffffffffffffffffffffffffffffffffffff16815260200190815260200160002060006101000a81548160ff0219169083151502179055507ffc15dd3f26943a069c0abb77db936db2118c5826d2c99ce8d90290a5073559bd82604051808273ffffffffffffffffffffffffffffffffffffffff16815260200191505060405180910390a15050565b600061453e83836040518060400160405280601e81526020017f536166654d6174683a207375627472616374696f6e206f766572666c6f770000815250614abc565b905092915050565b6000808284019050838110156145c4576040517f08c379a000000000000000000000000000000000000000000000000000000000815260040180806020018281038252601b8152602001807f536166654d6174683a206164646974696f6e206f766572666c6f77000000000081525060200191505060405180910390fd5b8091505092915050565b600033905090565b600073ffffffffffffffffffffffffffffffffffffffff168373ffffffffffffffffffffffffffffffffffffffff16141561465c576040517f08c379a000000000000000000000000000000000000000000000000000000000815260040180806020018281038252602481526020018061584d6024913960400191505060405180910390fd5b600073ffffffffffffffffffffffffffffffffffffffff168273ffffffffffffffffffffffffffffffffffffffff1614156146e2576040517f08c379a000000000000000000000000000000000000000000000000000000000815260040180806020018281038252602281526020018061567b6022913960400191505060405180910390fd5b80606660008573ffffffffffffffffffffffffffffffffffffffff1673ffffffffffffffffffffffffffffffffffffffff16815260200190815260200160002060008473ffffffffffffffffffffffffffffffffffffffff1673ffffffffffffffffffffffffffffffffffffffff168152602001908152602001600020819055508173ffffffffffffffffffffffffffffffffffffffff168373ffffffffffffffffffffffffffffffffffffffff167f8c5be1e5ebec7d5bd14f71427d1e84f3dd0314c0f7b2291e5b200ac8c7c3b925836040518082815260200191505060405180910390a3505050565b6000803090506000813b9050600081149250505090565b600060019054906101000a900460ff168061480357506148026147cd565b5b80614819575060008054906101000a900460ff16155b61486e576040517f08c379a000000000000000000000000000000000000000000000000000000000815260040180806020018281038252602e815260200180615750602e913960400191505060405180910390fd5b60008060019054906101000a900460ff1615905080156148be576001600060016101000a81548160ff02191690831515021790555060016000806101000a81548160ff0219169083151502179055505b6148c6615086565b6148d08383615184565b80156148f15760008060016101000a81548160ff0219169083151502179055505b505050565b600073ffffffffffffffffffffffffffffffffffffffff168273ffffffffffffffffffffffffffffffffffffffff16141561497c576040517f08c379a00000000000000000000000000000000000000000000000000000000081526004018080602001828103825260218152602001806157a26021913960400191505060405180910390fd5b614988826000836152ce565b6149f48160405180606001604052806022815260200161565960229139606560008673ffffffffffffffffffffffffffffffffffffffff1673ffffffffffffffffffffffffffffffffffffffff16815260200190815260200160002054614abc9092919063ffffffff16565b606560008473ffffffffffffffffffffffffffffffffffffffff1673ffffffffffffffffffffffffffffffffffffffff16815260200190815260200160002081905550614a4c816067546144fc90919063ffffffff16565b606781905550600073ffffffffffffffffffffffffffffffffffffffff168273ffffffffffffffffffffffffffffffffffffffff167fddf252ad1be2c89b69c2b068fc378daa952ba7f163c4a11628f55a4df523b3ef836040518082815260200191505060405180910390a35050565b6000838311158290614b69576040517f08c379a00000000000000000000000000000000000000000000000000000000081526004018080602001828103825283818151815260200191508051906020019080838360005b83811015614b2e578082015181840152602081019050614b13565b50505050905090810190601f168015614b5b5780820380516001836020036101000a031916815260200191505b509250505060405180910390fd5b5060008385039050809150509392505050565b600080600073__Calculations__________________________6390e58b9c87876040518363ffffffff1660e01b8152600401808381526020018281526020019250505060206040518083038186803b158015614bd857600080fd5b505af4158015614bec573d6000803e3d6000fd5b505050506040513d6020811015614c0257600080fd5b81019080805190602001909291905050509050600073__Calculations__________________________63096d59dd8888886040518463ffffffff1660e01b815260040180848152602001838152602001828152602001935050505060206040518083038186803b158015614c7657600080fd5b505af4158015614c8a573d6000803e3d6000fd5b505050506040513d6020811015614ca057600080fd5b81019080805190602001909291905050509050600073__Calculations__________________________63f1b4e9418989896040518463ffffffff1660e01b815260040180848152602001838152602001828152602001935050505060206040518083038186803b158015614d1457600080fd5b505af4158015614d28573d6000803e3d6000fd5b505050506040513d6020811015614d3e57600080fd5b81019080805190602001909291905050509050614d64818361454690919063ffffffff16565b8314614dbb576040517f08c379a000000000000000000000000000000000000000000000000000000000815260040180806020018281038252603a8152602001806158f5603a913960400191505060405180910390fd5b6000811115614dce57614dcd81611db8565b5b6000821115614e0857614e0660cb60060160009054906101000a900473ffffffffffffffffffffffffffffffffffffffff1683614e19565b505b808294509450505050935093915050565b6000614e2d614e266145ce565b84846152d3565b6001905092915050565b600073ffffffffffffffffffffffffffffffffffffffff168273ffffffffffffffffffffffffffffffffffffffff161415614eda576040517f08c379a000000000000000000000000000000000000000000000000000000000815260040180806020018281038252601f8152602001807f45524332303a206d696e7420746f20746865207a65726f20616464726573730081525060200191505060405180910390fd5b614ee6600083836152ce565b614efb8160675461454690919063ffffffff16565b606781905550614f5381606560008573ffffffffffffffffffffffffffffffffffffffff1673ffffffffffffffffffffffffffffffffffffffff1681526020019081526020016000205461454690919063ffffffff16565b606560008473ffffffffffffffffffffffffffffffffffffffff1673ffffffffffffffffffffffffffffffffffffffff168152602001908152602001600020819055508173ffffffffffffffffffffffffffffffffffffffff16600073ffffffffffffffffffffffffffffffffffffffff167fddf252ad1be2c89b69c2b068fc378daa952ba7f163c4a11628f55a4df523b3ef836040518082815260200191505060405180910390a35050565b6000808314156150135760009050615080565b600082840290508284828161502457fe5b041461507b576040517f08c379a000000000000000000000000000000000000000000000000000000000815260040180806020018281038252602181526020018061572f6021913960400191505060405180910390fd5b809150505b92915050565b600060019054906101000a900460ff16806150a557506150a46147cd565b5b806150bb575060008054906101000a900460ff16155b615110576040517f08c379a000000000000000000000000000000000000000000000000000000000815260040180806020018281038252602e815260200180615750602e913960400191505060405180910390fd5b60008060019054906101000a900460ff161590508015615160576001600060016101000a81548160ff02191690831515021790555060016000806101000a81548160ff0219169083151502179055505b80156151815760008060016101000a81548160ff0219169083151502179055505b50565b600060019054906101000a900460ff16806151a357506151a26147cd565b5b806151b9575060008054906101000a900460ff16155b61520e576040517f08c379a000000000000000000000000000000000000000000000000000000000815260040180806020018281038252602e815260200180615750602e913960400191505060405180910390fd5b60008060019054906101000a900460ff16159050801561525e576001600060016101000a81548160ff02191690831515021790555060016000806101000a81548160ff0219169083151502179055505b8260689080519060200190615274929190615598565b50816069908051906020019061528b929190615598565b506012606a60006101000a81548160ff021916908360ff16021790555080156152c95760008060016101000a81548160ff0219169083151502179055505b505050565b505050565b600073ffffffffffffffffffffffffffffffffffffffff168373ffffffffffffffffffffffffffffffffffffffff161415615359576040517f08c379a00000000000000000000000000000000000000000000000000000000081526004018080602001828103825260258152602001806158056025913960400191505060405180910390fd5b600073ffffffffffffffffffffffffffffffffffffffff168273ffffffffffffffffffffffffffffffffffffffff1614156153df576040517f08c379a00000000000000000000000000000000000000000000000000000000081526004018080602001828103825260238152602001806156366023913960400191505060405180910390fd5b6153ea8383836152ce565b6154568160405180606001604052806026815260200161570960269139606560008773ffffffffffffffffffffffffffffffffffffffff1673ffffffffffffffffffffffffffffffffffffffff16815260200190815260200160002054614abc9092919063ffffffff16565b606560008573ffffffffffffffffffffffffffffffffffffffff1673ffffffffffffffffffffffffffffffffffffffff168152602001908152602001600020819055506154eb81606560008573ffffffffffffffffffffffffffffffffffffffff1673ffffffffffffffffffffffffffffffffffffffff1681526020019081526020016000205461454690919063ffffffff16565b606560008473ffffffffffffffffffffffffffffffffffffffff1673ffffffffffffffffffffffffffffffffffffffff168152602001908152602001600020819055508173ffffffffffffffffffffffffffffffffffffffff168373ffffffffffffffffffffffffffffffffffffffff167fddf252ad1be2c89b69c2b068fc378daa952ba7f163c4a11628f55a4df523b3ef836040518082815260200191505060405180910390a3505050565b828054600181600116156101000203166002900490600052602060002090601f016020900481019282601f106155d957805160ff1916838001178555615607565b82800160010185558215615607579182015b828111156156065782518255916020019190600101906155eb565b5b5090506156149190615618565b5090565b5b80821115615631576000816000905550600101615619565b509056fe45524332303a207472616e7366657220746f20746865207a65726f206164647265737345524332303a206275726e20616d6f756e7420657863656564732062616c616e636545524332303a20617070726f766520746f20746865207a65726f2061646472657373446f206e6f742073656e64206d6f6e657920746f2074686520636f6e7472616374546869732077696c6c207065726d616e656e746c792064697361626c652066756e6374696f6e2c20706c6561736520736574205f636f6e6669726d3d7472756520746f20636f6e6669726d45524332303a207472616e7366657220616d6f756e7420657863656564732062616c616e6365536166654d6174683a206d756c7469706c69636174696f6e206f766572666c6f77436f6e747261637420696e7374616e63652068617320616c7265616479206265656e20696e697469616c697a656445524332303a206275726e20616d6f756e74206578636565647320616c6c6f77616e636545524332303a206275726e2066726f6d20746865207a65726f206164647265737347656e65726174696f6e20706572696f642063616e6e6f74206265206368616e676564206f6e636520636f6e747261637420697320696e206163746976652075736545524332303a207472616e736665722066726f6d20746865207a65726f20616464726573734e6f7420656e6f7567682062616c616e636520746f206d616b65207472616e7366657245524332303a20617070726f76652066726f6d20746865207a65726f2061646472657373546869732077696c6c207065726d616e656e746c792064697361626c652066756e6374696f6e20616c6c2066757365642066756e6374696f6e732c20706c6561736520736574205f636f6e6669726d3d7472756520746f20636f6e6669726d45524332303a2064656372656173656420616c6c6f77616e63652062656c6f77207a65726f66656573496e63436f6e747269627574696f6e2073686f756c6420657175616c20636f6e747269627574696f6e202b2066656573546f4275726ea2646970667358221220cac58cc245a682c538343f810a4c10dc2ae7708e73d9dd6789aec001c6b6bac664736f6c634300060c0033",
  "compiler": {
    "name": "solc",
    "version": "0.6.12+commit.27d51765.Emscripten.clang",
    "optimizer": {
      "enabled": false,
      "runs": 200
    },
    "evmVersion": "petersburg"
  }
}