{
  "fileName": "VICoin.sol",
  "contractName": "VICoin",
  "source": "pragma solidity ^0.6.6;\n\n/**\n    @title An open source smart contract for a UBI token with demurrage that\n        gives control of the currency to the community, with adjustable\n        parameters.\n    @author The Value Instrument Team\n    @notice \n    @dev This contract was developed for solc 0.6.6\n*/\n\nimport \"./lib/contracts-ethereum-package/token/ERC20/ERC20Burnable.sol\";\nimport \"./lib/contracts-ethereum-package/math/SafeMath.sol\";\nimport \"./FusedController.sol\";\nimport \"./lib/contracts-ethereum-package/Initializable.sol\";\nimport \"./Calculations.sol\";\n\nstruct Settings {\n    // number of blocks until balance decays to zero\n    uint256 lifetime;\n    // blocks between each generation period\n    uint256 generationPeriod;\n    // tokens issued to each account at each generation period\n    uint256 generationAmount;\n    // starting balance for a new account\n    uint256 initialBalance;\n    // contribution % taken from the transaction fee on every transfer\n    uint256 communityContribution;\n    // transaction fee % taken from every transfer\n    uint256 transactionFee;\n    // account that receives the contribution payments\n    address communityContributionAccount;\n}\n\n/// @notice One contract is deployed for each community\n/// @dev Based on openzeppelin's burnable and mintable ERC20 tokens\ncontract VICoin is Initializable, ERC20BurnableUpgradeSafe, FusedController {\n    using SafeMath for uint256;\n    using SafeMath for int256;\n\n    Settings settings;\n    mapping(address => uint256) public lastTransactionBlock;\n    mapping(address => uint256) public lastGenerationBlock;\n    mapping(address => uint256) public zeroBlock;\n    mapping(address => bool) public accountApproved;\n    uint256 public numAccounts;\n\n    event TransferSummary(\n        address indexed from,\n        address indexed to,\n        uint256 value,\n        uint256 feesBurned,\n        uint256 contribution,\n        uint256 payoutSender,\n        uint256 payoutRecipient\n    );\n    event VerifyAccount(address indexed account);\n    event UnapproveAccount(address account);\n    event Log(string name, uint256 value);\n\n    function initialize(\n        string memory _name,\n        string memory _symbol,\n        uint256 _lifetime,\n        uint256 _generationAmount,\n        uint256 _generationPeriod,\n        uint256 _communityContribution,\n        uint256 _transactionFee,\n        uint256 _initialBalance,\n        address _communityContributionAccount,\n        address _controller\n    ) public initializer {\n        FusedController.initialize(_controller);\n        __ERC20_init(_name, _symbol);\n\n        address communityContributionAccount = _communityContributionAccount;\n        if (_communityContributionAccount == address(0)) {\n            communityContributionAccount = msg.sender;\n        }\n\n        settings.lifetime = _lifetime;\n        settings.generationAmount = _generationAmount;\n        settings.generationPeriod = _generationPeriod;\n        settings.communityContribution = _communityContribution;\n        settings.transactionFee = _transactionFee;\n        settings.initialBalance = _initialBalance;\n        settings.communityContributionAccount = communityContributionAccount;\n\n        numAccounts = 0;\n    }\n\n    receive() external payable {\n        revert(\"Do not send money to the contract\");\n    }\n\n    /** @notice Manually trigger an onchain update of the live balance\n        @return Generation accrued since last balance update */\n    function triggerOnchainBalanceUpdate(address _account)\n        public\n        returns (uint256)\n    {\n        // 1. Decay the balance\n        uint256 decay = Calculations.calcDecay(\n            lastTransactionBlock[_account],\n            balanceOf(_account),\n            block.number,\n            zeroBlock[_account]\n        );\n        uint256 decayedBalance;\n        if (decay > 0) {\n            // decayedBalance = burnAt(_account, decay);\n            _burn(_account, decay);\n            decayedBalance = balanceOf(_account);\n        } else {\n            decayedBalance = balanceOf(_account);\n        }\n\n        // 2. Generate tokens\n        uint256 generationAccrued;\n        if (accountApproved[_account]) {\n            // Calculate the accrued generation, taking into account decay\n            generationAccrued = Calculations.calcGeneration(\n                block.number,\n                lastGenerationBlock[_account],\n                settings.lifetime,\n                settings.generationAmount,\n                settings.generationPeriod\n            );\n\n            if (generationAccrued > 0) {\n                // Issue the generated tokens\n                _mint(_account, generationAccrued);\n\n                // Record the last generation block\n                lastGenerationBlock[_account] += Calculations\n                    .calcNumCompletedPeriods(\n                    block\n                        .number,\n                    lastGenerationBlock[_account],\n                    settings\n                        .generationPeriod\n                )\n                    .mul(settings.generationPeriod);\n\n                // Extend the zero block\n                zeroBlock[_account] = Calculations.calcZeroBlock(\n                    generationAccrued,\n                    decayedBalance,\n                    block.number,\n                    settings.lifetime,\n                    zeroBlock[_account]\n                );\n            }\n        }\n        // Record the last transaction block\n        if (decay > 0 || generationAccrued > 0) {\n            lastTransactionBlock[_account] = block.number;\n        }\n        return generationAccrued;\n    }\n\n    /** @notice Return the real balance of the account, as of this block\n        @return Latest balance */\n    function liveBalanceOf(address _account) public view returns (uint256) {\n        uint256 decay = Calculations.calcDecay(\n            lastTransactionBlock[_account],\n            balanceOf(_account),\n            block.number,\n            zeroBlock[_account]\n        );\n        uint256 decayedBalance = balanceOf(_account).sub(decay);\n        if (lastGenerationBlock[_account] == 0) {\n            return (decayedBalance);\n        }\n        uint256 generationAccrued = 0;\n        if (accountApproved[_account]) {\n            generationAccrued = Calculations.calcGeneration(\n                block.number,\n                lastGenerationBlock[_account],\n                settings.lifetime,\n                settings.generationAmount,\n                settings.generationPeriod\n            );\n        }\n        return decayedBalance.add(generationAccrued);\n    }\n\n    /** @notice Transfer the currency from one account to another,\n                updating each account to reflect the time passed, and the\n                effects of the transfer\n        @return Success */\n    function transfer(address _to, uint256 _value)\n        public\n        override\n        returns (bool)\n    {\n        uint256 feesBurned;\n        uint256 contribution;\n        // Process generation and decay for sender\n        emit Log(\"Sender balance before update\", balanceOf(msg.sender));\n        uint256 generationAccruedSender = triggerOnchainBalanceUpdate(\n            msg.sender\n        );\n        emit Log(\"Sender balance after update\", balanceOf(msg.sender));\n\n        // Process generation and decay for recipient\n        emit Log(\"Recipient balance before update\", balanceOf(_to));\n        uint256 generationAccruedRecipient = triggerOnchainBalanceUpdate(_to);\n        emit Log(\"Recipient balance after update\", balanceOf(_to));\n\n        require(\n            balanceOf(msg.sender) >= _value,\n            \"Not enough balance to make transfer\"\n        );\n\n        // Process fees and contribution\n        (feesBurned, contribution) = processFeesAndContribution(\n            _value,\n            settings.transactionFee,\n            settings.communityContribution\n        );\n        uint256 valueAfterFees = _value.sub(feesBurned).sub(contribution);\n\n        //Extend zero block based on transfer\n        zeroBlock[_to] = Calculations.calcZeroBlock(\n            valueAfterFees,\n            balanceOf(_to),\n            block.number,\n            settings.lifetime,\n            zeroBlock[_to]\n        );\n\n        /* If they haven't already been updated (during decay or generation),\n            then update the lastTransactionBlock for both sender and recipient */\n        if (lastTransactionBlock[_to] != block.number) {\n            lastTransactionBlock[_to] = block.number;\n        }\n        if (lastTransactionBlock[msg.sender] != block.number) {\n            lastTransactionBlock[msg.sender] = block.number;\n        }\n\n        super.transfer(_to, valueAfterFees);\n        emit TransferSummary(\n            msg.sender,\n            _to,\n            valueAfterFees,\n            feesBurned,\n            contribution,\n            generationAccruedSender,\n            generationAccruedRecipient\n        );\n        return true;\n    }\n\n    /// @notice transferFrom disabled\n    function transferFrom(\n        address,\n        address,\n        uint256\n    ) public override returns (bool) {\n        revert(\"transferFrom disabled\");\n    }\n\n    /** @notice Calculate the fees and contribution, send contribution to the communtiy account,\n            and burn the fees\n        @dev Percentage to x dp as defined by contributionFeeDecimals e.g.\n            when contributionFeeDecimals is 2, 1200 is 12.00%\n        @return The total amount used for fees and contribution */\n    function processFeesAndContribution(\n        uint256 _value,\n        uint256 _transactionFee,\n        uint256 _communityContribution\n    ) internal returns (uint256, uint256) {\n        uint256 feesIncContribution = Calculations.calcFeesIncContribution(\n            _value,\n            _transactionFee\n        );\n        uint256 contribution = Calculations.calcContribution(\n            _value,\n            _transactionFee,\n            _communityContribution\n        );\n        uint256 feesToBurn = Calculations.calcFeesToBurn(\n            _value,\n            _transactionFee,\n            _communityContribution\n        );\n        require(\n            feesIncContribution == contribution.add(feesToBurn),\n            \"feesIncContribution should equal contribution + feesToBurn\"\n        );\n\n        if (feesToBurn > 0) {\n            super.burn(feesToBurn);\n        }\n\n        if (contribution > 0) {\n            super.transfer(settings.communityContributionAccount, contribution);\n        }\n\n        return (feesToBurn, contribution);\n    }\n\n    /** @notice Unapprove the specified account so that it no longer receives\n        generation */\n    function unapproveAccount(address _account)\n        external\n        onlyController\n        fused(6)\n    {\n        accountApproved[_account] = false;\n        emit UnapproveAccount(_account);\n    }\n\n    /** @notice Create a new account with the specified role\n        @dev New accounts can always be created.\n            This function can't be disabled. */\n    function verifyAccount(address _account) external onlyController {\n        accountApproved[_account] = true;\n        if (\n            settings.initialBalance > 0 && lastTransactionBlock[_account] == 0\n        ) {\n            // This is a new account !\n            numAccounts++;\n            _mint(_account, settings.initialBalance);\n            zeroBlock[_account] = block.number.add(settings.lifetime);\n            lastTransactionBlock[_account] = block.number;\n            lastGenerationBlock[_account] = block.number;\n            emit TransferSummary(\n                address(this),\n                _account,\n                settings.initialBalance,\n                0,\n                0,\n                0,\n                0\n            );\n        }\n        emit VerifyAccount(_account);\n    }\n\n    /** @notice Get the number of tokens issued to each account after each\n            generation period\n        @return Number of tokens issued at each generation period */\n    function getGenerationAmount() public view returns (uint256) {\n        return settings.generationAmount;\n    }\n\n    /// @notice Get essential details for the account\n    function getDetails(address _account)\n        public\n        view\n        returns (\n            uint256 _lastBlock,\n            uint256 _balance,\n            uint256 _zeroBlock\n        )\n    {\n        _lastBlock = lastTransactionBlock[_account];\n        _balance = balanceOf(_account);\n        _zeroBlock = zeroBlock[_account];\n    }\n\n    /** @notice Return the current block number\n        @return Current block number */\n    function getBlockNumber() public view returns (uint256) {\n        return block.number;\n    }\n\n    /** @notice Return lifetime\n        @return Number of blocks until balance decays to zero\n     */\n    function getLifetime() external view returns (uint256) {\n        return settings.lifetime;\n    }\n\n    /** @notice Return generation period\n        @return Number of blocks between each generation period\n    */\n    function getGenerationPeriod() external view returns (uint256) {\n        return settings.generationPeriod;\n    }\n\n    /** @notice Return initial balance\n        @return Number of tokens issued when an account is first verified */\n    function getInitialBalance() external view returns (uint256) {\n        return settings.initialBalance;\n    }\n\n    /** @notice Return community contribution, to 2 decimal places\n        @return The percentage that will be taken from the transaction fee \n                as a community contribution (2 d.p) */\n    function getCommunityContribution() external view returns (uint256) {\n        return settings.communityContribution;\n    }\n\n    /** @notice Return transaction fee, to 2 decimal places\n        @return The percentage that will be taken from each transaction as a fee (2 d.p) */\n    function getTransactionFee() external view returns (uint256) {\n        return settings.transactionFee;\n    }\n\n    /** @notice Return the community contribution account\n        @return The address that the community contribution is sent to */\n    function getCommunityContributionAccount() external view returns (address) {\n        return settings.communityContributionAccount;\n    }\n}\n",
  "sourcePath": "contracts/VICoin.sol",
  "abi": [
    {
      "anonymous": false,
      "inputs": [
        {
          "indexed": true,
          "internalType": "address",
          "name": "owner",
          "type": "address"
        },
        {
          "indexed": true,
          "internalType": "address",
          "name": "spender",
          "type": "address"
        },
        {
          "indexed": false,
          "internalType": "uint256",
          "name": "value",
          "type": "uint256"
        }
      ],
      "name": "Approval",
      "type": "event"
    },
    {
      "anonymous": false,
      "inputs": [],
      "name": "BlowAllFuses",
      "type": "event"
    },
    {
      "anonymous": false,
      "inputs": [
        {
          "indexed": false,
          "internalType": "uint8",
          "name": "_fuseID",
          "type": "uint8"
        }
      ],
      "name": "BlowFuse",
      "type": "event"
    },
    {
      "anonymous": false,
      "inputs": [
        {
          "indexed": false,
          "internalType": "address",
          "name": "_newController",
          "type": "address"
        }
      ],
      "name": "ChangeController",
      "type": "event"
    },
    {
      "anonymous": false,
      "inputs": [
        {
          "indexed": false,
          "internalType": "string",
          "name": "name",
          "type": "string"
        },
        {
          "indexed": false,
          "internalType": "uint256",
          "name": "value",
          "type": "uint256"
        }
      ],
      "name": "Log",
      "type": "event"
    },
    {
      "anonymous": false,
      "inputs": [
        {
          "indexed": true,
          "internalType": "address",
          "name": "from",
          "type": "address"
        },
        {
          "indexed": true,
          "internalType": "address",
          "name": "to",
          "type": "address"
        },
        {
          "indexed": false,
          "internalType": "uint256",
          "name": "value",
          "type": "uint256"
        }
      ],
      "name": "Transfer",
      "type": "event"
    },
    {
      "anonymous": false,
      "inputs": [
        {
          "indexed": true,
          "internalType": "address",
          "name": "from",
          "type": "address"
        },
        {
          "indexed": true,
          "internalType": "address",
          "name": "to",
          "type": "address"
        },
        {
          "indexed": false,
          "internalType": "uint256",
          "name": "value",
          "type": "uint256"
        },
        {
          "indexed": false,
          "internalType": "uint256",
          "name": "feesBurned",
          "type": "uint256"
        },
        {
          "indexed": false,
          "internalType": "uint256",
          "name": "contribution",
          "type": "uint256"
        },
        {
          "indexed": false,
          "internalType": "uint256",
          "name": "payoutSender",
          "type": "uint256"
        },
        {
          "indexed": false,
          "internalType": "uint256",
          "name": "payoutRecipient",
          "type": "uint256"
        }
      ],
      "name": "TransferSummary",
      "type": "event"
    },
    {
      "anonymous": false,
      "inputs": [
        {
          "indexed": false,
          "internalType": "address",
          "name": "account",
          "type": "address"
        }
      ],
      "name": "UnapproveAccount",
      "type": "event"
    },
    {
      "anonymous": false,
      "inputs": [
        {
          "indexed": true,
          "internalType": "address",
          "name": "account",
          "type": "address"
        }
      ],
      "name": "VerifyAccount",
      "type": "event"
    },
    {
      "inputs": [
        {
          "internalType": "address",
          "name": "",
          "type": "address"
        }
      ],
      "name": "accountApproved",
      "outputs": [
        {
          "internalType": "bool",
          "name": "",
          "type": "bool"
        }
      ],
      "stateMutability": "view",
      "type": "function"
    },
    {
      "inputs": [
        {
          "internalType": "address",
          "name": "owner",
          "type": "address"
        },
        {
          "internalType": "address",
          "name": "spender",
          "type": "address"
        }
      ],
      "name": "allowance",
      "outputs": [
        {
          "internalType": "uint256",
          "name": "",
          "type": "uint256"
        }
      ],
      "stateMutability": "view",
      "type": "function"
    },
    {
      "inputs": [
        {
          "internalType": "address",
          "name": "spender",
          "type": "address"
        },
        {
          "internalType": "uint256",
          "name": "amount",
          "type": "uint256"
        }
      ],
      "name": "approve",
      "outputs": [
        {
          "internalType": "bool",
          "name": "",
          "type": "bool"
        }
      ],
      "stateMutability": "nonpayable",
      "type": "function"
    },
    {
      "inputs": [
        {
          "internalType": "address",
          "name": "account",
          "type": "address"
        }
      ],
      "name": "balanceOf",
      "outputs": [
        {
          "internalType": "uint256",
          "name": "",
          "type": "uint256"
        }
      ],
      "stateMutability": "view",
      "type": "function"
    },
    {
      "inputs": [
        {
          "internalType": "bool",
          "name": "_confirm",
          "type": "bool"
        }
      ],
      "name": "blowAllFuses",
      "outputs": [],
      "stateMutability": "nonpayable",
      "type": "function"
    },
    {
      "inputs": [
        {
          "internalType": "uint8",
          "name": "_fuseID",
          "type": "uint8"
        },
        {
          "internalType": "bool",
          "name": "_confirm",
          "type": "bool"
        }
      ],
      "name": "blowFuse",
      "outputs": [],
      "stateMutability": "nonpayable",
      "type": "function"
    },
    {
      "inputs": [
        {
          "internalType": "uint256",
          "name": "amount",
          "type": "uint256"
        }
      ],
      "name": "burn",
      "outputs": [],
      "stateMutability": "nonpayable",
      "type": "function"
    },
    {
      "inputs": [
        {
          "internalType": "address",
          "name": "account",
          "type": "address"
        },
        {
          "internalType": "uint256",
          "name": "amount",
          "type": "uint256"
        }
      ],
      "name": "burnAt",
      "outputs": [],
      "stateMutability": "nonpayable",
      "type": "function"
    },
    {
      "inputs": [
        {
          "internalType": "address",
          "name": "account",
          "type": "address"
        },
        {
          "internalType": "uint256",
          "name": "amount",
          "type": "uint256"
        }
      ],
      "name": "burnFrom",
      "outputs": [],
      "stateMutability": "nonpayable",
      "type": "function"
    },
    {
      "inputs": [
        {
          "internalType": "address",
          "name": "_newController",
          "type": "address"
        }
      ],
      "name": "changeController",
      "outputs": [],
      "stateMutability": "nonpayable",
      "type": "function"
    },
    {
      "inputs": [],
      "name": "controller",
      "outputs": [
        {
          "internalType": "address",
          "name": "",
          "type": "address"
        }
      ],
      "stateMutability": "view",
      "type": "function"
    },
    {
      "inputs": [],
      "name": "decimals",
      "outputs": [
        {
          "internalType": "uint8",
          "name": "",
          "type": "uint8"
        }
      ],
      "stateMutability": "view",
      "type": "function"
    },
    {
      "inputs": [
        {
          "internalType": "address",
          "name": "spender",
          "type": "address"
        },
        {
          "internalType": "uint256",
          "name": "subtractedValue",
          "type": "uint256"
        }
      ],
      "name": "decreaseAllowance",
      "outputs": [
        {
          "internalType": "bool",
          "name": "",
          "type": "bool"
        }
      ],
      "stateMutability": "nonpayable",
      "type": "function"
    },
    {
      "inputs": [],
      "name": "getBlockNumber",
      "outputs": [
        {
          "internalType": "uint256",
          "name": "",
          "type": "uint256"
        }
      ],
      "stateMutability": "view",
      "type": "function"
    },
    {
      "inputs": [],
      "name": "getCommunityContribution",
      "outputs": [
        {
          "internalType": "uint256",
          "name": "",
          "type": "uint256"
        }
      ],
      "stateMutability": "view",
      "type": "function"
    },
    {
      "inputs": [],
      "name": "getCommunityContributionAccount",
      "outputs": [
        {
          "internalType": "address",
          "name": "",
          "type": "address"
        }
      ],
      "stateMutability": "view",
      "type": "function"
    },
    {
      "inputs": [
        {
          "internalType": "address",
          "name": "_account",
          "type": "address"
        }
      ],
      "name": "getDetails",
      "outputs": [
        {
          "internalType": "uint256",
          "name": "_lastBlock",
          "type": "uint256"
        },
        {
          "internalType": "uint256",
          "name": "_balance",
          "type": "uint256"
        },
        {
          "internalType": "uint256",
          "name": "_zeroBlock",
          "type": "uint256"
        }
      ],
      "stateMutability": "view",
      "type": "function"
    },
    {
      "inputs": [],
      "name": "getGenerationAmount",
      "outputs": [
        {
          "internalType": "uint256",
          "name": "",
          "type": "uint256"
        }
      ],
      "stateMutability": "view",
      "type": "function"
    },
    {
      "inputs": [],
      "name": "getGenerationPeriod",
      "outputs": [
        {
          "internalType": "uint256",
          "name": "",
          "type": "uint256"
        }
      ],
      "stateMutability": "view",
      "type": "function"
    },
    {
      "inputs": [],
      "name": "getInitialBalance",
      "outputs": [
        {
          "internalType": "uint256",
          "name": "",
          "type": "uint256"
        }
      ],
      "stateMutability": "view",
      "type": "function"
    },
    {
      "inputs": [],
      "name": "getLifetime",
      "outputs": [
        {
          "internalType": "uint256",
          "name": "",
          "type": "uint256"
        }
      ],
      "stateMutability": "view",
      "type": "function"
    },
    {
      "inputs": [],
      "name": "getTransactionFee",
      "outputs": [
        {
          "internalType": "uint256",
          "name": "",
          "type": "uint256"
        }
      ],
      "stateMutability": "view",
      "type": "function"
    },
    {
      "inputs": [
        {
          "internalType": "address",
          "name": "spender",
          "type": "address"
        },
        {
          "internalType": "uint256",
          "name": "addedValue",
          "type": "uint256"
        }
      ],
      "name": "increaseAllowance",
      "outputs": [
        {
          "internalType": "bool",
          "name": "",
          "type": "bool"
        }
      ],
      "stateMutability": "nonpayable",
      "type": "function"
    },
    {
      "inputs": [
        {
          "internalType": "string",
          "name": "_name",
          "type": "string"
        },
        {
          "internalType": "string",
          "name": "_symbol",
          "type": "string"
        },
        {
          "internalType": "uint256",
          "name": "_lifetime",
          "type": "uint256"
        },
        {
          "internalType": "uint256",
          "name": "_generationAmount",
          "type": "uint256"
        },
        {
          "internalType": "uint256",
          "name": "_generationPeriod",
          "type": "uint256"
        },
        {
          "internalType": "uint256",
          "name": "_communityContribution",
          "type": "uint256"
        },
        {
          "internalType": "uint256",
          "name": "_transactionFee",
          "type": "uint256"
        },
        {
          "internalType": "uint256",
          "name": "_initialBalance",
          "type": "uint256"
        },
        {
          "internalType": "address",
          "name": "_communityContributionAccount",
          "type": "address"
        },
        {
          "internalType": "address",
          "name": "_controller",
          "type": "address"
        }
      ],
      "name": "initialize",
      "outputs": [],
      "stateMutability": "nonpayable",
      "type": "function"
    },
    {
      "inputs": [
        {
          "internalType": "address",
          "name": "_controller",
          "type": "address"
        }
      ],
      "name": "initialize",
      "outputs": [],
      "stateMutability": "nonpayable",
      "type": "function"
    },
    {
      "inputs": [
        {
          "internalType": "address",
          "name": "",
          "type": "address"
        }
      ],
      "name": "lastGenerationBlock",
      "outputs": [
        {
          "internalType": "uint256",
          "name": "",
          "type": "uint256"
        }
      ],
      "stateMutability": "view",
      "type": "function"
    },
    {
      "inputs": [
        {
          "internalType": "address",
          "name": "",
          "type": "address"
        }
      ],
      "name": "lastTransactionBlock",
      "outputs": [
        {
          "internalType": "uint256",
          "name": "",
          "type": "uint256"
        }
      ],
      "stateMutability": "view",
      "type": "function"
    },
    {
      "inputs": [
        {
          "internalType": "address",
          "name": "_account",
          "type": "address"
        }
      ],
      "name": "liveBalanceOf",
      "outputs": [
        {
          "internalType": "uint256",
          "name": "",
          "type": "uint256"
        }
      ],
      "stateMutability": "view",
      "type": "function"
    },
    {
      "inputs": [],
      "name": "name",
      "outputs": [
        {
          "internalType": "string",
          "name": "",
          "type": "string"
        }
      ],
      "stateMutability": "view",
      "type": "function"
    },
    {
      "inputs": [],
      "name": "numAccounts",
      "outputs": [
        {
          "internalType": "uint256",
          "name": "",
          "type": "uint256"
        }
      ],
      "stateMutability": "view",
      "type": "function"
    },
    {
      "inputs": [],
      "name": "symbol",
      "outputs": [
        {
          "internalType": "string",
          "name": "",
          "type": "string"
        }
      ],
      "stateMutability": "view",
      "type": "function"
    },
    {
      "inputs": [],
      "name": "totalSupply",
      "outputs": [
        {
          "internalType": "uint256",
          "name": "",
          "type": "uint256"
        }
      ],
      "stateMutability": "view",
      "type": "function"
    },
    {
      "inputs": [
        {
          "internalType": "address",
          "name": "_to",
          "type": "address"
        },
        {
          "internalType": "uint256",
          "name": "_value",
          "type": "uint256"
        }
      ],
      "name": "transfer",
      "outputs": [
        {
          "internalType": "bool",
          "name": "",
          "type": "bool"
        }
      ],
      "stateMutability": "nonpayable",
      "type": "function"
    },
    {
      "inputs": [
        {
          "internalType": "address",
          "name": "",
          "type": "address"
        },
        {
          "internalType": "address",
          "name": "",
          "type": "address"
        },
        {
          "internalType": "uint256",
          "name": "",
          "type": "uint256"
        }
      ],
      "name": "transferFrom",
      "outputs": [
        {
          "internalType": "bool",
          "name": "",
          "type": "bool"
        }
      ],
      "stateMutability": "nonpayable",
      "type": "function"
    },
    {
      "inputs": [
        {
          "internalType": "address",
          "name": "_account",
          "type": "address"
        }
      ],
      "name": "triggerOnchainBalanceUpdate",
      "outputs": [
        {
          "internalType": "uint256",
          "name": "",
          "type": "uint256"
        }
      ],
      "stateMutability": "nonpayable",
      "type": "function"
    },
    {
      "inputs": [
        {
          "internalType": "address",
          "name": "_account",
          "type": "address"
        }
      ],
      "name": "unapproveAccount",
      "outputs": [],
      "stateMutability": "nonpayable",
      "type": "function"
    },
    {
      "inputs": [
        {
          "internalType": "address",
          "name": "_account",
          "type": "address"
        }
      ],
      "name": "verifyAccount",
      "outputs": [],
      "stateMutability": "nonpayable",
      "type": "function"
    },
    {
      "inputs": [
        {
          "internalType": "address",
          "name": "",
          "type": "address"
        }
      ],
      "name": "zeroBlock",
      "outputs": [
        {
          "internalType": "uint256",
          "name": "",
          "type": "uint256"
        }
      ],
      "stateMutability": "view",
      "type": "function"
    },
    {
      "stateMutability": "payable",
      "type": "receive"
    }
  ],
  "bytecode": "0x608060405234801561001057600080fd5b5061471a806100206000396000f3fe6080604052600436106102295760003560e01c806381e6e08311610123578063a990ecd4116100ab578063ed52f1821161006f578063ed52f18214610ed2578063f16dfbe914610f39578063f77c479114610f8a578063f9128ed514610fcb578063fbda28dc146110305761027f565b8063a990ecd414610d4a578063c4d66de814610d75578063dd62ed3e14610dc6578063e3321e1f14610e4b578063e49ac4cd14610e955761027f565b80639803f216116100f25780639803f21614610b7d5780639a40e4a114610bd8578063a457c2d714610c03578063a707603814610c74578063a9059cbb14610cd95761027f565b806381e6e08314610a6c57806385d7910214610a975780638ce25a9314610ac257806395d89b4114610aed5761027f565b8063313ce567116101b1578063544aeaf611610175578063544aeaf6146108db5780636f22c0b5146109405780636fb17cc51461098157806370a08231146109ac57806379cc679014610a115761027f565b8063313ce5671461078557806339509351146107b35780633cebb8231461082457806342966c681461087557806342cbb15c146108b05761027f565b806318160ddd116101f857806318160ddd14610415578063194462da146104405780631d718f041461061c57806323b872dd1461068157806330289c61146107125761027f565b806302a69e481461028457806306fdde03146102e9578063095ea7b3146103795780630db146e6146103ea5761027f565b3661027f576040517f08c379a00000000000000000000000000000000000000000000000000000000081526004018080602001828103825260218152602001806144956021913960400191505060405180910390fd5b600080fd5b34801561029057600080fd5b506102d3600480360360208110156102a757600080fd5b81019080803573ffffffffffffffffffffffffffffffffffffffff169060200190929190505050611081565b6040518082815260200191505060405180910390f35b3480156102f557600080fd5b506102fe61138c565b6040518080602001828103825283818151815260200191508051906020019080838360005b8381101561033e578082015181840152602081019050610323565b50505050905090810190601f16801561036b5780820380516001836020036101000a031916815260200191505b509250505060405180910390f35b34801561038557600080fd5b506103d26004803603604081101561039c57600080fd5b81019080803573ffffffffffffffffffffffffffffffffffffffff1690602001909291908035906020019092919050505061142e565b60405180821515815260200191505060405180910390f35b3480156103f657600080fd5b506103ff61144c565b6040518082815260200191505060405180910390f35b34801561042157600080fd5b5061042a611459565b6040518082815260200191505060405180910390f35b34801561044c57600080fd5b5061061a600480360361014081101561046457600080fd5b810190808035906020019064010000000081111561048157600080fd5b82018360208201111561049357600080fd5b803590602001918460018302840111640100000000831117156104b557600080fd5b91908080601f016020809104026020016040519081016040528093929190818152602001838380828437600081840152601f19601f8201169050808301925050505050505091929192908035906020019064010000000081111561051857600080fd5b82018360208201111561052a57600080fd5b8035906020019184600183028401116401000000008311171561054c57600080fd5b91908080601f016020809104026020016040519081016040528093929190818152602001838380828437600081840152601f19601f820116905080830192505050505050509192919290803590602001909291908035906020019092919080359060200190929190803590602001909291908035906020019092919080359060200190929190803573ffffffffffffffffffffffffffffffffffffffff169060200190929190803573ffffffffffffffffffffffffffffffffffffffff169060200190929190505050611463565b005b34801561062857600080fd5b5061066b6004803603602081101561063f57600080fd5b81019080803573ffffffffffffffffffffffffffffffffffffffff169060200190929190505050611645565b6040518082815260200191505060405180910390f35b34801561068d57600080fd5b506106fa600480360360608110156106a457600080fd5b81019080803573ffffffffffffffffffffffffffffffffffffffff169060200190929190803573ffffffffffffffffffffffffffffffffffffffff1690602001909291908035906020019092919050505061165d565b60405180821515815260200191505060405180910390f35b34801561071e57600080fd5b506107616004803603602081101561073557600080fd5b81019080803573ffffffffffffffffffffffffffffffffffffffff1690602001909291905050506116cd565b60405180848152602001838152602001828152602001935050505060405180910390f35b34801561079157600080fd5b5061079a611768565b604051808260ff16815260200191505060405180910390f35b3480156107bf57600080fd5b5061080c600480360360408110156107d657600080fd5b81019080803573ffffffffffffffffffffffffffffffffffffffff1690602001909291908035906020019092919050505061177f565b60405180821515815260200191505060405180910390f35b34801561083057600080fd5b506108736004803603602081101561084757600080fd5b81019080803573ffffffffffffffffffffffffffffffffffffffff169060200190929190505050611832565b005b34801561088157600080fd5b506108ae6004803603602081101561089857600080fd5b8101908080359060200190929190505050611986565b005b3480156108bc57600080fd5b506108c561199a565b6040518082815260200191505060405180910390f35b3480156108e757600080fd5b5061092a600480360360208110156108fe57600080fd5b81019080803573ffffffffffffffffffffffffffffffffffffffff1690602001909291905050506119a2565b6040518082815260200191505060405180910390f35b34801561094c57600080fd5b506109556119ba565b604051808273ffffffffffffffffffffffffffffffffffffffff16815260200191505060405180910390f35b34801561098d57600080fd5b506109966119e7565b6040518082815260200191505060405180910390f35b3480156109b857600080fd5b506109fb600480360360208110156109cf57600080fd5b81019080803573ffffffffffffffffffffffffffffffffffffffff1690602001909291905050506119f4565b6040518082815260200191505060405180910390f35b348015610a1d57600080fd5b50610a6a60048036036040811015610a3457600080fd5b81019080803573ffffffffffffffffffffffffffffffffffffffff16906020019092919080359060200190929190505050611a3d565b005b348015610a7857600080fd5b50610a81611a9f565b6040518082815260200191505060405180910390f35b348015610aa357600080fd5b50610aac611aac565b6040518082815260200191505060405180910390f35b348015610ace57600080fd5b50610ad7611ab9565b6040518082815260200191505060405180910390f35b348015610af957600080fd5b50610b02611abf565b6040518080602001828103825283818151815260200191508051906020019080838360005b83811015610b42578082015181840152602081019050610b27565b50505050905090810190601f168015610b6f5780820380516001836020036101000a031916815260200191505b509250505060405180910390f35b348015610b8957600080fd5b50610bd660048036036040811015610ba057600080fd5b81019080803573ffffffffffffffffffffffffffffffffffffffff16906020019092919080359060200190929190505050611b61565b005b348015610be457600080fd5b50610bed611b6f565b6040518082815260200191505060405180910390f35b348015610c0f57600080fd5b50610c5c60048036036040811015610c2657600080fd5b81019080803573ffffffffffffffffffffffffffffffffffffffff16906020019092919080359060200190929190505050611b7c565b60405180821515815260200191505060405180910390f35b348015610c8057600080fd5b50610cc360048036036020811015610c9757600080fd5b81019080803573ffffffffffffffffffffffffffffffffffffffff169060200190929190505050611c49565b6040518082815260200191505060405180910390f35b348015610ce557600080fd5b50610d3260048036036040811015610cfc57600080fd5b81019080803573ffffffffffffffffffffffffffffffffffffffff16906020019092919080359060200190929190505050611c61565b60405180821515815260200191505060405180910390f35b348015610d5657600080fd5b50610d5f6121f5565b6040518082815260200191505060405180910390f35b348015610d8157600080fd5b50610dc460048036036020811015610d9857600080fd5b81019080803573ffffffffffffffffffffffffffffffffffffffff169060200190929190505050612202565b005b348015610dd257600080fd5b50610e3560048036036040811015610de957600080fd5b81019080803573ffffffffffffffffffffffffffffffffffffffff169060200190929190803573ffffffffffffffffffffffffffffffffffffffff1690602001909291905050506123be565b6040518082815260200191505060405180910390f35b348015610e5757600080fd5b50610e9360048036036040811015610e6e57600080fd5b81019080803560ff169060200190929190803515159060200190929190505050612445565b005b348015610ea157600080fd5b50610ed060048036036020811015610eb857600080fd5b810190808035151590602001909291905050506125d4565b005b348015610ede57600080fd5b50610f2160048036036020811015610ef557600080fd5b81019080803573ffffffffffffffffffffffffffffffffffffffff169060200190929190505050612737565b60405180821515815260200191505060405180910390f35b348015610f4557600080fd5b50610f8860048036036020811015610f5c57600080fd5b81019080803573ffffffffffffffffffffffffffffffffffffffff169060200190929190505050612757565b005b348015610f9657600080fd5b50610f9f612aa2565b604051808273ffffffffffffffffffffffffffffffffffffffff16815260200191505060405180910390f35b348015610fd757600080fd5b5061101a60048036036020811015610fee57600080fd5b81019080803573ffffffffffffffffffffffffffffffffffffffff169060200190929190505050612ac8565b6040518082815260200191505060405180910390f35b34801561103c57600080fd5b5061107f6004803603602081101561105357600080fd5b81019080803573ffffffffffffffffffffffffffffffffffffffff16906020019092919050505061305e565b005b60008073__Calculations__________________________63d6f8458260d260008673ffffffffffffffffffffffffffffffffffffffff1673ffffffffffffffffffffffffffffffffffffffff168152602001908152602001600020546110e7866119f4565b4360d460008973ffffffffffffffffffffffffffffffffffffffff1673ffffffffffffffffffffffffffffffffffffffff168152602001908152602001600020546040518563ffffffff1660e01b81526004018085815260200184815260200183815260200182815260200194505050505060206040518083038186803b15801561117157600080fd5b505af4158015611185573d6000803e3d6000fd5b505050506040513d602081101561119b57600080fd5b8101908080519060200190929190505050905060006111cb826111bd866119f4565b6132f490919063ffffffff16565b9050600060d360008673ffffffffffffffffffffffffffffffffffffffff1673ffffffffffffffffffffffffffffffffffffffff16815260200190815260200160002054141561121f578092505050611387565b600060d560008673ffffffffffffffffffffffffffffffffffffffff1673ffffffffffffffffffffffffffffffffffffffff16815260200190815260200160002060009054906101000a900460ff161561136e5773__Calculations__________________________637ee6b8cf4360d360008973ffffffffffffffffffffffffffffffffffffffff1673ffffffffffffffffffffffffffffffffffffffff1681526020019081526020016000205460cb6000015460cb6002015460cb600101546040518663ffffffff1660e01b8152600401808681526020018581526020018481526020018381526020018281526020019550505050505060206040518083038186803b15801561133057600080fd5b505af4158015611344573d6000803e3d6000fd5b505050506040513d602081101561135a57600080fd5b810190808051906020019092919050505090505b611381818361333e90919063ffffffff16565b93505050505b919050565b606060688054600181600116156101000203166002900480601f0160208091040260200160405190810160405280929190818152602001828054600181600116156101000203166002900480156114245780601f106113f957610100808354040283529160200191611424565b820191906000526020600020905b81548152906001019060200180831161140757829003601f168201915b5050505050905090565b600061144261143b6133c6565b84846133ce565b6001905092915050565b600060cb60030154905090565b6000606754905090565b600060019054906101000a900460ff168061148257506114816135c5565b5b80611498575060008054906101000a900460ff16155b6114ed576040517f08c379a000000000000000000000000000000000000000000000000000000000815260040180806020018281038252602e815260200180614548602e913960400191505060405180910390fd5b60008060019054906101000a900460ff16159050801561153d576001600060016101000a81548160ff02191690831515021790555060016000806101000a81548160ff0219169083151502179055505b61154682612202565b6115508b8b6135dc565b6000839050600073ffffffffffffffffffffffffffffffffffffffff168473ffffffffffffffffffffffffffffffffffffffff16141561158e573390505b8960cb600001819055508860cb600201819055508760cb600101819055508660cb600401819055508560cb600501819055508460cb600301819055508060cb60060160006101000a81548173ffffffffffffffffffffffffffffffffffffffff021916908373ffffffffffffffffffffffffffffffffffffffff160217905550600060d6819055505080156116385760008060016101000a81548160ff0219169083151502179055505b5050505050505050505050565b60d36020528060005260406000206000915090505481565b60006040517f08c379a00000000000000000000000000000000000000000000000000000000081526004018080602001828103825260158152602001807f7472616e7366657246726f6d2064697361626c6564000000000000000000000081525060200191505060405180910390fd5b600080600060d260008573ffffffffffffffffffffffffffffffffffffffff1673ffffffffffffffffffffffffffffffffffffffff16815260200190815260200160002054925061171d846119f4565b915060d460008573ffffffffffffffffffffffffffffffffffffffff1673ffffffffffffffffffffffffffffffffffffffff1681526020019081526020016000205490509193909250565b6000606a60009054906101000a900460ff16905090565b600061182861178c6133c6565b84611823856066600061179d6133c6565b73ffffffffffffffffffffffffffffffffffffffff1673ffffffffffffffffffffffffffffffffffffffff16815260200190815260200160002060008973ffffffffffffffffffffffffffffffffffffffff1673ffffffffffffffffffffffffffffffffffffffff1681526020019081526020016000205461333e90919063ffffffff16565b6133ce565b6001905092915050565b60c960009054906101000a900473ffffffffffffffffffffffffffffffffffffffff1673ffffffffffffffffffffffffffffffffffffffff163373ffffffffffffffffffffffffffffffffffffffff16146118f5576040517f08c379a00000000000000000000000000000000000000000000000000000000081526004018080602001828103825260208152602001807f436f6e74726f6c6c6572206163636f756e742f636f6e7472616374206f6e6c7981525060200191505060405180910390fd5b8060c960006101000a81548173ffffffffffffffffffffffffffffffffffffffff021916908373ffffffffffffffffffffffffffffffffffffffff1602179055507fc0c3fe6333763f87ec50ad1366067ab6f03fd677c62f3c20e50e9446afd32ef681604051808273ffffffffffffffffffffffffffffffffffffffff16815260200191505060405180910390a150565b6119976119916133c6565b826136ee565b50565b600043905090565b60d46020528060005260406000206000915090505481565b600060cb60060160009054906101000a900473ffffffffffffffffffffffffffffffffffffffff16905090565b600060cb60010154905090565b6000606560008373ffffffffffffffffffffffffffffffffffffffff1673ffffffffffffffffffffffffffffffffffffffff168152602001908152602001600020549050919050565b6000611a7c8260405180606001604052806024815260200161457660249139611a6d86611a686133c6565b6123be565b6138b49092919063ffffffff16565b9050611a9083611a8a6133c6565b836133ce565b611a9a83836136ee565b505050565b600060cb60000154905090565b600060cb60050154905090565b60d65481565b606060698054600181600116156101000203166002900480601f016020809104026020016040519081016040528092919081815260200182805460018160011615610100020316600290048015611b575780601f10611b2c57610100808354040283529160200191611b57565b820191906000526020600020905b815481529060010190602001808311611b3a57829003601f168201915b5050505050905090565b611b6b82826136ee565b5050565b600060cb60040154905090565b6000611c3f611b896133c6565b84611c3a856040518060600160405280602581526020016146866025913960666000611bb36133c6565b73ffffffffffffffffffffffffffffffffffffffff1673ffffffffffffffffffffffffffffffffffffffff16815260200190815260200160002060008a73ffffffffffffffffffffffffffffffffffffffff1673ffffffffffffffffffffffffffffffffffffffff168152602001908152602001600020546138b49092919063ffffffff16565b6133ce565b6001905092915050565b60d26020528060005260406000206000915090505481565b60008060007fdd970dd9b5bfe707922155b058a407655cb18288b807e2216442bca8ad83d6b5611c90336119f4565b60405180806020018381526020018281038252601c8152602001807f53656e6465722062616c616e6365206265666f726520757064617465000000008152506020019250505060405180910390a16000611ce933612ac8565b90507fdd970dd9b5bfe707922155b058a407655cb18288b807e2216442bca8ad83d6b5611d15336119f4565b60405180806020018381526020018281038252601b8152602001807f53656e6465722062616c616e63652061667465722075706461746500000000008152506020019250505060405180910390a17fdd970dd9b5bfe707922155b058a407655cb18288b807e2216442bca8ad83d6b5611d8d876119f4565b60405180806020018381526020018281038252601f8152602001807f526563697069656e742062616c616e6365206265666f726520757064617465008152506020019250505060405180910390a16000611de687612ac8565b90507fdd970dd9b5bfe707922155b058a407655cb18288b807e2216442bca8ad83d6b5611e12886119f4565b60405180806020018381526020018281038252601e8152602001807f526563697069656e742062616c616e63652061667465722075706461746500008152506020019250505060405180910390a185611e6a336119f4565b1015611ec1576040517f08c379a00000000000000000000000000000000000000000000000000000000081526004018080602001828103825260238152602001806145e06023913960400191505060405180910390fd5b611ed68660cb6005015460cb60040154613974565b80945081955050506000611f0584611ef7878a6132f490919063ffffffff16565b6132f490919063ffffffff16565b905073__Calculations__________________________6320147c6f82611f2b8b6119f4565b4360cb6000015460d460008f73ffffffffffffffffffffffffffffffffffffffff1673ffffffffffffffffffffffffffffffffffffffff168152602001908152602001600020546040518663ffffffff1660e01b8152600401808681526020018581526020018481526020018381526020018281526020019550505050505060206040518083038186803b158015611fc257600080fd5b505af4158015611fd6573d6000803e3d6000fd5b505050506040513d6020811015611fec57600080fd5b810190808051906020019092919050505060d460008a73ffffffffffffffffffffffffffffffffffffffff1673ffffffffffffffffffffffffffffffffffffffff168152602001908152602001600020819055504360d260008a73ffffffffffffffffffffffffffffffffffffffff1673ffffffffffffffffffffffffffffffffffffffff16815260200190815260200160002054146120cb574360d260008a73ffffffffffffffffffffffffffffffffffffffff1673ffffffffffffffffffffffffffffffffffffffff168152602001908152602001600020819055505b4360d260003373ffffffffffffffffffffffffffffffffffffffff1673ffffffffffffffffffffffffffffffffffffffff1681526020019081526020016000205414612156574360d260003373ffffffffffffffffffffffffffffffffffffffff1673ffffffffffffffffffffffffffffffffffffffff168152602001908152602001600020819055505b6121608882613c11565b508773ffffffffffffffffffffffffffffffffffffffff163373ffffffffffffffffffffffffffffffffffffffff167fa3c1c81272d3f33b878008270aebb295c7ed4cdf3012646ea120616d132086218388888888604051808681526020018581526020018481526020018381526020018281526020019550505050505060405180910390a360019550505050505092915050565b600060cb60020154905090565b600060019054906101000a900460ff168061222157506122206135c5565b5b80612237575060008054906101000a900460ff16155b61228c576040517f08c379a000000000000000000000000000000000000000000000000000000000815260040180806020018281038252602e815260200180614548602e913960400191505060405180910390fd5b60008060019054906101000a900460ff1615905080156122dc576001600060016101000a81548160ff02191690831515021790555060016000806101000a81548160ff0219169083151502179055505b600073ffffffffffffffffffffffffffffffffffffffff168273ffffffffffffffffffffffffffffffffffffffff161415612357573360c960006101000a81548173ffffffffffffffffffffffffffffffffffffffff021916908373ffffffffffffffffffffffffffffffffffffffff160217905550612399565b8160c960006101000a81548173ffffffffffffffffffffffffffffffffffffffff021916908373ffffffffffffffffffffffffffffffffffffffff1602179055505b80156123ba5760008060016101000a81548160ff0219169083151502179055505b5050565b6000606660008473ffffffffffffffffffffffffffffffffffffffff1673ffffffffffffffffffffffffffffffffffffffff16815260200190815260200160002060008373ffffffffffffffffffffffffffffffffffffffff1673ffffffffffffffffffffffffffffffffffffffff16815260200190815260200160002054905092915050565b60c960009054906101000a900473ffffffffffffffffffffffffffffffffffffffff1673ffffffffffffffffffffffffffffffffffffffff163373ffffffffffffffffffffffffffffffffffffffff1614612508576040517f08c379a00000000000000000000000000000000000000000000000000000000081526004018080602001828103825260208152602001807f436f6e74726f6c6c6572206163636f756e742f636f6e7472616374206f6e6c7981525060200191505060405180910390fd5b6001151581151514612565576040517f08c379a000000000000000000000000000000000000000000000000000000000815260040180806020018281038252604b8152602001806144b6604b913960600191505060405180910390fd5b600160ca8360ff166020811061257757fe5b602091828204019190066101000a81548160ff0219169083151502179055507f0a1c4fbbe900dd991589095fcecc99c37b45915eb6e6574e7398954e874bbebe82604051808260ff16815260200191505060405180910390a15050565b60c960009054906101000a900473ffffffffffffffffffffffffffffffffffffffff1673ffffffffffffffffffffffffffffffffffffffff163373ffffffffffffffffffffffffffffffffffffffff1614612697576040517f08c379a00000000000000000000000000000000000000000000000000000000081526004018080602001828103825260208152602001807f436f6e74726f6c6c6572206163636f756e742f636f6e7472616374206f6e6c7981525060200191505060405180910390fd5b806126ed576040517f08c379a000000000000000000000000000000000000000000000000000000000815260040180806020018281038252605f815260200180614627605f913960600191505060405180910390fd5b600160c960146101000a81548160ff0219169083151502179055507f3f6efc34971655abc7da08a1bf5e861a7e41e21c617aa42f0a9e1643ed4c199d60405160405180910390a150565b60d56020528060005260406000206000915054906101000a900460ff1681565b60c960009054906101000a900473ffffffffffffffffffffffffffffffffffffffff1673ffffffffffffffffffffffffffffffffffffffff163373ffffffffffffffffffffffffffffffffffffffff161461281a576040517f08c379a00000000000000000000000000000000000000000000000000000000081526004018080602001828103825260208152602001807f436f6e74726f6c6c6572206163636f756e742f636f6e7472616374206f6e6c7981525060200191505060405180910390fd5b600160d560008373ffffffffffffffffffffffffffffffffffffffff1673ffffffffffffffffffffffffffffffffffffffff16815260200190815260200160002060006101000a81548160ff021916908315150217905550600060cb600301541180156128c65750600060d260008373ffffffffffffffffffffffffffffffffffffffff1673ffffffffffffffffffffffffffffffffffffffff16815260200190815260200160002054145b15612a5c5760d6600081548092919060010191905055506128ec8160cb60030154613c2f565b61290460cb600001544361333e90919063ffffffff16565b60d460008373ffffffffffffffffffffffffffffffffffffffff1673ffffffffffffffffffffffffffffffffffffffff168152602001908152602001600020819055504360d260008373ffffffffffffffffffffffffffffffffffffffff1673ffffffffffffffffffffffffffffffffffffffff168152602001908152602001600020819055504360d360008373ffffffffffffffffffffffffffffffffffffffff1673ffffffffffffffffffffffffffffffffffffffff168152602001908152602001600020819055508073ffffffffffffffffffffffffffffffffffffffff163073ffffffffffffffffffffffffffffffffffffffff167fa3c1c81272d3f33b878008270aebb295c7ed4cdf3012646ea120616d1320862160cb60030154600080600080604051808681526020018581526020018481526020018381526020018281526020019550505050505060405180910390a35b8073ffffffffffffffffffffffffffffffffffffffff167f619bf7388c3d01e96351d15ea181010fb3ae477b7d27b1bf9a40d0f9ac526f6560405160405180910390a250565b60c960009054906101000a900473ffffffffffffffffffffffffffffffffffffffff1681565b60008073__Calculations__________________________63d6f8458260d260008673ffffffffffffffffffffffffffffffffffffffff1673ffffffffffffffffffffffffffffffffffffffff16815260200190815260200160002054612b2e866119f4565b4360d460008973ffffffffffffffffffffffffffffffffffffffff1673ffffffffffffffffffffffffffffffffffffffff168152602001908152602001600020546040518563ffffffff1660e01b81526004018085815260200184815260200183815260200182815260200194505050505060206040518083038186803b158015612bb857600080fd5b505af4158015612bcc573d6000803e3d6000fd5b505050506040513d6020811015612be257600080fd5b81019080805190602001909291905050509050600080821115612c1957612c0984836136ee565b612c12846119f4565b9050612c25565b612c22846119f4565b90505b600060d560008673ffffffffffffffffffffffffffffffffffffffff1673ffffffffffffffffffffffffffffffffffffffff16815260200190815260200160002060009054906101000a900460ff1615612ffa5773__Calculations__________________________637ee6b8cf4360d360008973ffffffffffffffffffffffffffffffffffffffff1673ffffffffffffffffffffffffffffffffffffffff1681526020019081526020016000205460cb6000015460cb6002015460cb600101546040518663ffffffff1660e01b8152600401808681526020018581526020018481526020018381526020018281526020019550505050505060206040518083038186803b158015612d3657600080fd5b505af4158015612d4a573d6000803e3d6000fd5b505050506040513d6020811015612d6057600080fd5b810190808051906020019092919050505090506000811115612ff957612d868582613c2f565b612e7b60cb6001015473__Calculations__________________________63542a9c834360d360008b73ffffffffffffffffffffffffffffffffffffffff1673ffffffffffffffffffffffffffffffffffffffff1681526020019081526020016000205460cb600101546040518463ffffffff1660e01b815260040180848152602001838152602001828152602001935050505060206040518083038186803b158015612e3257600080fd5b505af4158015612e46573d6000803e3d6000fd5b505050506040513d6020811015612e5c57600080fd5b8101908080519060200190929190505050613df890919063ffffffff16565b60d360008773ffffffffffffffffffffffffffffffffffffffff1673ffffffffffffffffffffffffffffffffffffffff1681526020019081526020016000206000828254019250508190555073__Calculations__________________________6320147c6f82844360cb6000015460d460008c73ffffffffffffffffffffffffffffffffffffffff1673ffffffffffffffffffffffffffffffffffffffff168152602001908152602001600020546040518663ffffffff1660e01b8152600401808681526020018581526020018481526020018381526020018281526020019550505050505060206040518083038186803b158015612f7a57600080fd5b505af4158015612f8e573d6000803e3d6000fd5b505050506040513d6020811015612fa457600080fd5b810190808051906020019092919050505060d460008773ffffffffffffffffffffffffffffffffffffffff1673ffffffffffffffffffffffffffffffffffffffff168152602001908152602001600020819055505b5b60008311806130095750600081115b15613053574360d260008773ffffffffffffffffffffffffffffffffffffffff1673ffffffffffffffffffffffffffffffffffffffff168152602001908152602001600020819055505b809350505050919050565b60c960009054906101000a900473ffffffffffffffffffffffffffffffffffffffff1673ffffffffffffffffffffffffffffffffffffffff163373ffffffffffffffffffffffffffffffffffffffff1614613121576040517f08c379a00000000000000000000000000000000000000000000000000000000081526004018080602001828103825260208152602001807f436f6e74726f6c6c6572206163636f756e742f636f6e7472616374206f6e6c7981525060200191505060405180910390fd5b60066000151560c960149054906101000a900460ff161515146131ac576040517f08c379a00000000000000000000000000000000000000000000000000000000081526004018080602001828103825260208152602001807f46756e6374696f6e206675736520686173206265656e2074726967676572656481525060200191505060405180910390fd5b6000151560ca8260ff16602081106131c057fe5b602091828204019190069054906101000a900460ff1615151461324b576040517f08c379a00000000000000000000000000000000000000000000000000000000081526004018080602001828103825260208152602001807f46756e6374696f6e206675736520686173206265656e2074726967676572656481525060200191505060405180910390fd5b600060d560008473ffffffffffffffffffffffffffffffffffffffff1673ffffffffffffffffffffffffffffffffffffffff16815260200190815260200160002060006101000a81548160ff0219169083151502179055507ffc15dd3f26943a069c0abb77db936db2118c5826d2c99ce8d90290a5073559bd82604051808273ffffffffffffffffffffffffffffffffffffffff16815260200191505060405180910390a15050565b600061333683836040518060400160405280601e81526020017f536166654d6174683a207375627472616374696f6e206f766572666c6f7700008152506138b4565b905092915050565b6000808284019050838110156133bc576040517f08c379a000000000000000000000000000000000000000000000000000000000815260040180806020018281038252601b8152602001807f536166654d6174683a206164646974696f6e206f766572666c6f77000000000081525060200191505060405180910390fd5b8091505092915050565b600033905090565b600073ffffffffffffffffffffffffffffffffffffffff168373ffffffffffffffffffffffffffffffffffffffff161415613454576040517f08c379a00000000000000000000000000000000000000000000000000000000081526004018080602001828103825260248152602001806146036024913960400191505060405180910390fd5b600073ffffffffffffffffffffffffffffffffffffffff168273ffffffffffffffffffffffffffffffffffffffff1614156134da576040517f08c379a00000000000000000000000000000000000000000000000000000000081526004018080602001828103825260228152602001806144736022913960400191505060405180910390fd5b80606660008573ffffffffffffffffffffffffffffffffffffffff1673ffffffffffffffffffffffffffffffffffffffff16815260200190815260200160002060008473ffffffffffffffffffffffffffffffffffffffff1673ffffffffffffffffffffffffffffffffffffffff168152602001908152602001600020819055508173ffffffffffffffffffffffffffffffffffffffff168373ffffffffffffffffffffffffffffffffffffffff167f8c5be1e5ebec7d5bd14f71427d1e84f3dd0314c0f7b2291e5b200ac8c7c3b925836040518082815260200191505060405180910390a3505050565b6000803090506000813b9050600081149250505090565b600060019054906101000a900460ff16806135fb57506135fa6135c5565b5b80613611575060008054906101000a900460ff16155b613666576040517f08c379a000000000000000000000000000000000000000000000000000000000815260040180806020018281038252602e815260200180614548602e913960400191505060405180910390fd5b60008060019054906101000a900460ff1615905080156136b6576001600060016101000a81548160ff02191690831515021790555060016000806101000a81548160ff0219169083151502179055505b6136be613e7e565b6136c88383613f7c565b80156136e95760008060016101000a81548160ff0219169083151502179055505b505050565b600073ffffffffffffffffffffffffffffffffffffffff168273ffffffffffffffffffffffffffffffffffffffff161415613774576040517f08c379a000000000000000000000000000000000000000000000000000000000815260040180806020018281038252602181526020018061459a6021913960400191505060405180910390fd5b613780826000836140c6565b6137ec8160405180606001604052806022815260200161445160229139606560008673ffffffffffffffffffffffffffffffffffffffff1673ffffffffffffffffffffffffffffffffffffffff168152602001908152602001600020546138b49092919063ffffffff16565b606560008473ffffffffffffffffffffffffffffffffffffffff1673ffffffffffffffffffffffffffffffffffffffff16815260200190815260200160002081905550613844816067546132f490919063ffffffff16565b606781905550600073ffffffffffffffffffffffffffffffffffffffff168273ffffffffffffffffffffffffffffffffffffffff167fddf252ad1be2c89b69c2b068fc378daa952ba7f163c4a11628f55a4df523b3ef836040518082815260200191505060405180910390a35050565b6000838311158290613961576040517f08c379a00000000000000000000000000000000000000000000000000000000081526004018080602001828103825283818151815260200191508051906020019080838360005b8381101561392657808201518184015260208101905061390b565b50505050905090810190601f1680156139535780820380516001836020036101000a031916815260200191505b509250505060405180910390fd5b5060008385039050809150509392505050565b600080600073__Calculations__________________________6390e58b9c87876040518363ffffffff1660e01b8152600401808381526020018281526020019250505060206040518083038186803b1580156139d057600080fd5b505af41580156139e4573d6000803e3d6000fd5b505050506040513d60208110156139fa57600080fd5b81019080805190602001909291905050509050600073__Calculations__________________________63096d59dd8888886040518463ffffffff1660e01b815260040180848152602001838152602001828152602001935050505060206040518083038186803b158015613a6e57600080fd5b505af4158015613a82573d6000803e3d6000fd5b505050506040513d6020811015613a9857600080fd5b81019080805190602001909291905050509050600073__Calculations__________________________63f1b4e9418989896040518463ffffffff1660e01b815260040180848152602001838152602001828152602001935050505060206040518083038186803b158015613b0c57600080fd5b505af4158015613b20573d6000803e3d6000fd5b505050506040513d6020811015613b3657600080fd5b81019080805190602001909291905050509050613b5c818361333e90919063ffffffff16565b8314613bb3576040517f08c379a000000000000000000000000000000000000000000000000000000000815260040180806020018281038252603a8152602001806146ab603a913960400191505060405180910390fd5b6000811115613bc657613bc581611986565b5b6000821115613c0057613bfe60cb60060160009054906101000a900473ffffffffffffffffffffffffffffffffffffffff1683613c11565b505b808294509450505050935093915050565b6000613c25613c1e6133c6565b84846140cb565b6001905092915050565b600073ffffffffffffffffffffffffffffffffffffffff168273ffffffffffffffffffffffffffffffffffffffff161415613cd2576040517f08c379a000000000000000000000000000000000000000000000000000000000815260040180806020018281038252601f8152602001807f45524332303a206d696e7420746f20746865207a65726f20616464726573730081525060200191505060405180910390fd5b613cde600083836140c6565b613cf38160675461333e90919063ffffffff16565b606781905550613d4b81606560008573ffffffffffffffffffffffffffffffffffffffff1673ffffffffffffffffffffffffffffffffffffffff1681526020019081526020016000205461333e90919063ffffffff16565b606560008473ffffffffffffffffffffffffffffffffffffffff1673ffffffffffffffffffffffffffffffffffffffff168152602001908152602001600020819055508173ffffffffffffffffffffffffffffffffffffffff16600073ffffffffffffffffffffffffffffffffffffffff167fddf252ad1be2c89b69c2b068fc378daa952ba7f163c4a11628f55a4df523b3ef836040518082815260200191505060405180910390a35050565b600080831415613e0b5760009050613e78565b6000828402905082848281613e1c57fe5b0414613e73576040517f08c379a00000000000000000000000000000000000000000000000000000000081526004018080602001828103825260218152602001806145276021913960400191505060405180910390fd5b809150505b92915050565b600060019054906101000a900460ff1680613e9d5750613e9c6135c5565b5b80613eb3575060008054906101000a900460ff16155b613f08576040517f08c379a000000000000000000000000000000000000000000000000000000000815260040180806020018281038252602e815260200180614548602e913960400191505060405180910390fd5b60008060019054906101000a900460ff161590508015613f58576001600060016101000a81548160ff02191690831515021790555060016000806101000a81548160ff0219169083151502179055505b8015613f795760008060016101000a81548160ff0219169083151502179055505b50565b600060019054906101000a900460ff1680613f9b5750613f9a6135c5565b5b80613fb1575060008054906101000a900460ff16155b614006576040517f08c379a000000000000000000000000000000000000000000000000000000000815260040180806020018281038252602e815260200180614548602e913960400191505060405180910390fd5b60008060019054906101000a900460ff161590508015614056576001600060016101000a81548160ff02191690831515021790555060016000806101000a81548160ff0219169083151502179055505b826068908051906020019061406c929190614390565b508160699080519060200190614083929190614390565b506012606a60006101000a81548160ff021916908360ff16021790555080156140c15760008060016101000a81548160ff0219169083151502179055505b505050565b505050565b600073ffffffffffffffffffffffffffffffffffffffff168373ffffffffffffffffffffffffffffffffffffffff161415614151576040517f08c379a00000000000000000000000000000000000000000000000000000000081526004018080602001828103825260258152602001806145bb6025913960400191505060405180910390fd5b600073ffffffffffffffffffffffffffffffffffffffff168273ffffffffffffffffffffffffffffffffffffffff1614156141d7576040517f08c379a000000000000000000000000000000000000000000000000000000000815260040180806020018281038252602381526020018061442e6023913960400191505060405180910390fd5b6141e28383836140c6565b61424e8160405180606001604052806026815260200161450160269139606560008773ffffffffffffffffffffffffffffffffffffffff1673ffffffffffffffffffffffffffffffffffffffff168152602001908152602001600020546138b49092919063ffffffff16565b606560008573ffffffffffffffffffffffffffffffffffffffff1673ffffffffffffffffffffffffffffffffffffffff168152602001908152602001600020819055506142e381606560008573ffffffffffffffffffffffffffffffffffffffff1673ffffffffffffffffffffffffffffffffffffffff1681526020019081526020016000205461333e90919063ffffffff16565b606560008473ffffffffffffffffffffffffffffffffffffffff1673ffffffffffffffffffffffffffffffffffffffff168152602001908152602001600020819055508173ffffffffffffffffffffffffffffffffffffffff168373ffffffffffffffffffffffffffffffffffffffff167fddf252ad1be2c89b69c2b068fc378daa952ba7f163c4a11628f55a4df523b3ef836040518082815260200191505060405180910390a3505050565b828054600181600116156101000203166002900490600052602060002090601f016020900481019282601f106143d157805160ff19168380011785556143ff565b828001600101855582156143ff579182015b828111156143fe5782518255916020019190600101906143e3565b5b50905061440c9190614410565b5090565b5b80821115614429576000816000905550600101614411565b509056fe45524332303a207472616e7366657220746f20746865207a65726f206164647265737345524332303a206275726e20616d6f756e7420657863656564732062616c616e636545524332303a20617070726f766520746f20746865207a65726f2061646472657373446f206e6f742073656e64206d6f6e657920746f2074686520636f6e7472616374546869732077696c6c207065726d616e656e746c792064697361626c652066756e6374696f6e2c20706c6561736520736574205f636f6e6669726d3d7472756520746f20636f6e6669726d45524332303a207472616e7366657220616d6f756e7420657863656564732062616c616e6365536166654d6174683a206d756c7469706c69636174696f6e206f766572666c6f77436f6e747261637420696e7374616e63652068617320616c7265616479206265656e20696e697469616c697a656445524332303a206275726e20616d6f756e74206578636565647320616c6c6f77616e636545524332303a206275726e2066726f6d20746865207a65726f206164647265737345524332303a207472616e736665722066726f6d20746865207a65726f20616464726573734e6f7420656e6f7567682062616c616e636520746f206d616b65207472616e7366657245524332303a20617070726f76652066726f6d20746865207a65726f2061646472657373546869732077696c6c207065726d616e656e746c792064697361626c652066756e6374696f6e20616c6c2066757365642066756e6374696f6e732c20706c6561736520736574205f636f6e6669726d3d7472756520746f20636f6e6669726d45524332303a2064656372656173656420616c6c6f77616e63652062656c6f77207a65726f66656573496e63436f6e747269627574696f6e2073686f756c6420657175616c20636f6e747269627574696f6e202b2066656573546f4275726ea2646970667358221220cfb4e3ca868ddc6d5fbb429204b2def451434a28919269d7b9cad81a8f9dfc8f64736f6c634300060c0033",
  "compiler": {
    "name": "solc",
    "version": "0.6.12+commit.27d51765.Emscripten.clang",
    "optimizer": {
      "enabled": false,
      "runs": 200
    },
    "evmVersion": "petersburg"
  }
}